{
	"contracts/personContract.sol": {
		"Person": {
			"abi": [
				{
					"inputs": [],
					"name": "getPersonAge",
					"outputs": [
						{
							"internalType": "uint256",
							"name": "",
							"type": "uint256"
						}
					],
					"stateMutability": "view",
					"type": "function"
				},
				{
					"inputs": [],
					"name": "getPersonName",
					"outputs": [
						{
							"internalType": "string",
							"name": "",
							"type": "string"
						}
					],
					"stateMutability": "view",
					"type": "function"
				},
				{
					"inputs": [
						{
							"internalType": "uint256",
							"name": "_age",
							"type": "uint256"
						}
					],
					"name": "setPersonAge",
					"outputs": [],
					"stateMutability": "nonpayable",
					"type": "function"
				},
				{
					"inputs": [
						{
							"internalType": "string",
							"name": "_name",
							"type": "string"
						}
					],
					"name": "setPersonName",
					"outputs": [],
					"stateMutability": "nonpayable",
					"type": "function"
				}
			],
			"devdoc": {
				"kind": "dev",
				"methods": {},
				"version": 1
			},
			"evm": {
				"assembly": "    /* \"contracts/personContract.sol\":66:537  contract Person{... */\n  mstore(0x40, 0x80)\n    /* \"contracts/personContract.sol\":92:123  string internal personName = \"\" */\n  mload(0x40)\n  dup1\n  0x20\n  add\n  0x40\n  mstore\n  dup1\n  0x00\n  dup2\n  mstore\n  pop\n  0x00\n  swap1\n  dup2\n  tag_1\n  swap2\n  swap1\n  tag_2\n  jump\t// in\ntag_1:\n  pop\n    /* \"contracts/personContract.sol\":155:156  0 */\n  0x00\n    /* \"contracts/personContract.sol\":129:156  uint internal personAge = 0 */\n  0x01\n  sstore\n    /* \"contracts/personContract.sol\":66:537  contract Person{... */\n  callvalue\n  dup1\n  iszero\n  tag_3\n  jumpi\n  0x00\n  dup1\n  revert\ntag_3:\n  pop\n  jump(tag_4)\n    /* \"#utility.yul\":7:106   */\ntag_5:\n    /* \"#utility.yul\":59:65   */\n  0x00\n    /* \"#utility.yul\":93:98   */\n  dup2\n    /* \"#utility.yul\":87:99   */\n  mload\n    /* \"#utility.yul\":77:99   */\n  swap1\n  pop\n    /* \"#utility.yul\":7:106   */\n  swap2\n  swap1\n  pop\n  jump\t// out\n    /* \"#utility.yul\":112:292   */\ntag_6:\n    /* \"#utility.yul\":160:237   */\n  0x4e487b7100000000000000000000000000000000000000000000000000000000\n    /* \"#utility.yul\":157:158   */\n  0x00\n    /* \"#utility.yul\":150:238   */\n  mstore\n    /* \"#utility.yul\":257:261   */\n  0x41\n    /* \"#utility.yul\":254:255   */\n  0x04\n    /* \"#utility.yul\":247:262   */\n  mstore\n    /* \"#utility.yul\":281:285   */\n  0x24\n    /* \"#utility.yul\":278:279   */\n  0x00\n    /* \"#utility.yul\":271:286   */\n  revert\n    /* \"#utility.yul\":298:478   */\ntag_7:\n    /* \"#utility.yul\":346:423   */\n  0x4e487b7100000000000000000000000000000000000000000000000000000000\n    /* \"#utility.yul\":343:344   */\n  0x00\n    /* \"#utility.yul\":336:424   */\n  mstore\n    /* \"#utility.yul\":443:447   */\n  0x22\n    /* \"#utility.yul\":440:441   */\n  0x04\n    /* \"#utility.yul\":433:448   */\n  mstore\n    /* \"#utility.yul\":467:471   */\n  0x24\n    /* \"#utility.yul\":464:465   */\n  0x00\n    /* \"#utility.yul\":457:472   */\n  revert\n    /* \"#utility.yul\":484:804   */\ntag_8:\n    /* \"#utility.yul\":528:534   */\n  0x00\n    /* \"#utility.yul\":565:566   */\n  0x02\n    /* \"#utility.yul\":559:563   */\n  dup3\n    /* \"#utility.yul\":555:567   */\n  div\n    /* \"#utility.yul\":545:567   */\n  swap1\n  pop\n    /* \"#utility.yul\":612:613   */\n  0x01\n    /* \"#utility.yul\":606:610   */\n  dup3\n    /* \"#utility.yul\":602:614   */\n  and\n    /* \"#utility.yul\":633:651   */\n  dup1\n    /* \"#utility.yul\":623:704   */\n  tag_30\n  jumpi\n    /* \"#utility.yul\":689:693   */\n  0x7f\n    /* \"#utility.yul\":681:687   */\n  dup3\n    /* \"#utility.yul\":677:694   */\n  and\n    /* \"#utility.yul\":667:694   */\n  swap2\n  pop\n    /* \"#utility.yul\":623:704   */\ntag_30:\n    /* \"#utility.yul\":751:753   */\n  0x20\n    /* \"#utility.yul\":743:749   */\n  dup3\n    /* \"#utility.yul\":740:754   */\n  lt\n    /* \"#utility.yul\":720:738   */\n  dup2\n    /* \"#utility.yul\":717:755   */\n  sub\n    /* \"#utility.yul\":714:798   */\n  tag_31\n  jumpi\n    /* \"#utility.yul\":770:788   */\n  tag_32\n  tag_7\n  jump\t// in\ntag_32:\n    /* \"#utility.yul\":714:798   */\ntag_31:\n    /* \"#utility.yul\":535:804   */\n  pop\n    /* \"#utility.yul\":484:804   */\n  swap2\n  swap1\n  pop\n  jump\t// out\n    /* \"#utility.yul\":810:951   */\ntag_9:\n    /* \"#utility.yul\":859:863   */\n  0x00\n    /* \"#utility.yul\":882:885   */\n  dup2\n    /* \"#utility.yul\":874:885   */\n  swap1\n  pop\n    /* \"#utility.yul\":905:908   */\n  dup2\n    /* \"#utility.yul\":902:903   */\n  0x00\n    /* \"#utility.yul\":895:909   */\n  mstore\n    /* \"#utility.yul\":939:943   */\n  0x20\n    /* \"#utility.yul\":936:937   */\n  0x00\n    /* \"#utility.yul\":926:944   */\n  keccak256\n    /* \"#utility.yul\":918:944   */\n  swap1\n  pop\n    /* \"#utility.yul\":810:951   */\n  swap2\n  swap1\n  pop\n  jump\t// out\n    /* \"#utility.yul\":957:1050   */\ntag_10:\n    /* \"#utility.yul\":994:1000   */\n  0x00\n    /* \"#utility.yul\":1041:1043   */\n  0x20\n    /* \"#utility.yul\":1036:1038   */\n  0x1f\n    /* \"#utility.yul\":1029:1034   */\n  dup4\n    /* \"#utility.yul\":1025:1039   */\n  add\n    /* \"#utility.yul\":1021:1044   */\n  div\n    /* \"#utility.yul\":1011:1044   */\n  swap1\n  pop\n    /* \"#utility.yul\":957:1050   */\n  swap2\n  swap1\n  pop\n  jump\t// out\n    /* \"#utility.yul\":1056:1163   */\ntag_11:\n    /* \"#utility.yul\":1100:1108   */\n  0x00\n    /* \"#utility.yul\":1150:1155   */\n  dup3\n    /* \"#utility.yul\":1144:1148   */\n  dup3\n    /* \"#utility.yul\":1140:1156   */\n  shl\n    /* \"#utility.yul\":1119:1156   */\n  swap1\n  pop\n    /* \"#utility.yul\":1056:1163   */\n  swap3\n  swap2\n  pop\n  pop\n  jump\t// out\n    /* \"#utility.yul\":1169:1562   */\ntag_12:\n    /* \"#utility.yul\":1238:1244   */\n  0x00\n    /* \"#utility.yul\":1288:1289   */\n  0x08\n    /* \"#utility.yul\":1276:1286   */\n  dup4\n    /* \"#utility.yul\":1272:1290   */\n  mul\n    /* \"#utility.yul\":1311:1408   */\n  tag_37\n    /* \"#utility.yul\":1341:1407   */\n  0xffffffffffffffffffffffffffffffffffffffffffffffffffffffffffffffff\n    /* \"#utility.yul\":1330:1339   */\n  dup3\n    /* \"#utility.yul\":1311:1408   */\n  tag_11\n  jump\t// in\ntag_37:\n    /* \"#utility.yul\":1429:1468   */\n  tag_38\n    /* \"#utility.yul\":1459:1467   */\n  dup7\n    /* \"#utility.yul\":1448:1457   */\n  dup4\n    /* \"#utility.yul\":1429:1468   */\n  tag_11\n  jump\t// in\ntag_38:\n    /* \"#utility.yul\":1417:1468   */\n  swap6\n  pop\n    /* \"#utility.yul\":1501:1505   */\n  dup1\n    /* \"#utility.yul\":1497:1506   */\n  not\n    /* \"#utility.yul\":1490:1495   */\n  dup5\n    /* \"#utility.yul\":1486:1507   */\n  and\n    /* \"#utility.yul\":1477:1507   */\n  swap4\n  pop\n    /* \"#utility.yul\":1550:1554   */\n  dup1\n    /* \"#utility.yul\":1540:1548   */\n  dup7\n    /* \"#utility.yul\":1536:1555   */\n  and\n    /* \"#utility.yul\":1529:1534   */\n  dup5\n    /* \"#utility.yul\":1526:1556   */\n  or\n    /* \"#utility.yul\":1516:1556   */\n  swap3\n  pop\n    /* \"#utility.yul\":1245:1562   */\n  pop\n  pop\n    /* \"#utility.yul\":1169:1562   */\n  swap4\n  swap3\n  pop\n  pop\n  pop\n  jump\t// out\n    /* \"#utility.yul\":1568:1645   */\ntag_13:\n    /* \"#utility.yul\":1605:1612   */\n  0x00\n    /* \"#utility.yul\":1634:1639   */\n  dup2\n    /* \"#utility.yul\":1623:1639   */\n  swap1\n  pop\n    /* \"#utility.yul\":1568:1645   */\n  swap2\n  swap1\n  pop\n  jump\t// out\n    /* \"#utility.yul\":1651:1711   */\ntag_14:\n    /* \"#utility.yul\":1679:1682   */\n  0x00\n    /* \"#utility.yul\":1700:1705   */\n  dup2\n    /* \"#utility.yul\":1693:1705   */\n  swap1\n  pop\n    /* \"#utility.yul\":1651:1711   */\n  swap2\n  swap1\n  pop\n  jump\t// out\n    /* \"#utility.yul\":1717:1859   */\ntag_15:\n    /* \"#utility.yul\":1767:1776   */\n  0x00\n    /* \"#utility.yul\":1800:1853   */\n  tag_42\n    /* \"#utility.yul\":1818:1852   */\n  tag_43\n    /* \"#utility.yul\":1827:1851   */\n  tag_44\n    /* \"#utility.yul\":1845:1850   */\n  dup5\n    /* \"#utility.yul\":1827:1851   */\n  tag_13\n  jump\t// in\ntag_44:\n    /* \"#utility.yul\":1818:1852   */\n  tag_14\n  jump\t// in\ntag_43:\n    /* \"#utility.yul\":1800:1853   */\n  tag_13\n  jump\t// in\ntag_42:\n    /* \"#utility.yul\":1787:1853   */\n  swap1\n  pop\n    /* \"#utility.yul\":1717:1859   */\n  swap2\n  swap1\n  pop\n  jump\t// out\n    /* \"#utility.yul\":1865:1940   */\ntag_16:\n    /* \"#utility.yul\":1908:1911   */\n  0x00\n    /* \"#utility.yul\":1929:1934   */\n  dup2\n    /* \"#utility.yul\":1922:1934   */\n  swap1\n  pop\n    /* \"#utility.yul\":1865:1940   */\n  swap2\n  swap1\n  pop\n  jump\t// out\n    /* \"#utility.yul\":1946:2215   */\ntag_17:\n    /* \"#utility.yul\":2056:2095   */\n  tag_47\n    /* \"#utility.yul\":2087:2094   */\n  dup4\n    /* \"#utility.yul\":2056:2095   */\n  tag_15\n  jump\t// in\ntag_47:\n    /* \"#utility.yul\":2117:2208   */\n  tag_48\n    /* \"#utility.yul\":2166:2207   */\n  tag_49\n    /* \"#utility.yul\":2190:2206   */\n  dup3\n    /* \"#utility.yul\":2166:2207   */\n  tag_16\n  jump\t// in\ntag_49:\n    /* \"#utility.yul\":2158:2164   */\n  dup5\n    /* \"#utility.yul\":2151:2155   */\n  dup5\n    /* \"#utility.yul\":2145:2156   */\n  sload\n    /* \"#utility.yul\":2117:2208   */\n  tag_12\n  jump\t// in\ntag_48:\n    /* \"#utility.yul\":2111:2115   */\n  dup3\n    /* \"#utility.yul\":2104:2209   */\n  sstore\n    /* \"#utility.yul\":2022:2215   */\n  pop\n    /* \"#utility.yul\":1946:2215   */\n  pop\n  pop\n  pop\n  jump\t// out\n    /* \"#utility.yul\":2221:2294   */\ntag_18:\n    /* \"#utility.yul\":2266:2269   */\n  0x00\n    /* \"#utility.yul\":2221:2294   */\n  swap1\n  jump\t// out\n    /* \"#utility.yul\":2300:2489   */\ntag_19:\n    /* \"#utility.yul\":2377:2409   */\n  tag_52\n  tag_18\n  jump\t// in\ntag_52:\n    /* \"#utility.yul\":2418:2483   */\n  tag_53\n    /* \"#utility.yul\":2476:2482   */\n  dup2\n    /* \"#utility.yul\":2468:2474   */\n  dup5\n    /* \"#utility.yul\":2462:2466   */\n  dup5\n    /* \"#utility.yul\":2418:2483   */\n  tag_17\n  jump\t// in\ntag_53:\n    /* \"#utility.yul\":2353:2489   */\n  pop\n    /* \"#utility.yul\":2300:2489   */\n  pop\n  pop\n  jump\t// out\n    /* \"#utility.yul\":2495:2681   */\ntag_20:\n    /* \"#utility.yul\":2555:2675   */\ntag_55:\n    /* \"#utility.yul\":2572:2575   */\n  dup2\n    /* \"#utility.yul\":2565:2570   */\n  dup2\n    /* \"#utility.yul\":2562:2576   */\n  lt\n    /* \"#utility.yul\":2555:2675   */\n  iszero\n  tag_57\n  jumpi\n    /* \"#utility.yul\":2626:2665   */\n  tag_58\n    /* \"#utility.yul\":2663:2664   */\n  0x00\n    /* \"#utility.yul\":2656:2661   */\n  dup3\n    /* \"#utility.yul\":2626:2665   */\n  tag_19\n  jump\t// in\ntag_58:\n    /* \"#utility.yul\":2599:2600   */\n  0x01\n    /* \"#utility.yul\":2592:2597   */\n  dup2\n    /* \"#utility.yul\":2588:2601   */\n  add\n    /* \"#utility.yul\":2579:2601   */\n  swap1\n  pop\n    /* \"#utility.yul\":2555:2675   */\n  jump(tag_55)\ntag_57:\n    /* \"#utility.yul\":2495:2681   */\n  pop\n  pop\n  jump\t// out\n    /* \"#utility.yul\":2687:3230   */\ntag_21:\n    /* \"#utility.yul\":2788:2790   */\n  0x1f\n    /* \"#utility.yul\":2783:2786   */\n  dup3\n    /* \"#utility.yul\":2780:2791   */\n  gt\n    /* \"#utility.yul\":2777:3223   */\n  iszero\n  tag_60\n  jumpi\n    /* \"#utility.yul\":2822:2860   */\n  tag_61\n    /* \"#utility.yul\":2854:2859   */\n  dup2\n    /* \"#utility.yul\":2822:2860   */\n  tag_9\n  jump\t// in\ntag_61:\n    /* \"#utility.yul\":2906:2935   */\n  tag_62\n    /* \"#utility.yul\":2924:2934   */\n  dup5\n    /* \"#utility.yul\":2906:2935   */\n  tag_10\n  jump\t// in\ntag_62:\n    /* \"#utility.yul\":2896:2904   */\n  dup2\n    /* \"#utility.yul\":2892:2936   */\n  add\n    /* \"#utility.yul\":3089:3091   */\n  0x20\n    /* \"#utility.yul\":3077:3087   */\n  dup6\n    /* \"#utility.yul\":3074:3092   */\n  lt\n    /* \"#utility.yul\":3071:3120   */\n  iszero\n  tag_63\n  jumpi\n    /* \"#utility.yul\":3110:3118   */\n  dup2\n    /* \"#utility.yul\":3095:3118   */\n  swap1\n  pop\n    /* \"#utility.yul\":3071:3120   */\ntag_63:\n    /* \"#utility.yul\":3133:3213   */\n  tag_64\n    /* \"#utility.yul\":3189:3211   */\n  tag_65\n    /* \"#utility.yul\":3207:3210   */\n  dup6\n    /* \"#utility.yul\":3189:3211   */\n  tag_10\n  jump\t// in\ntag_65:\n    /* \"#utility.yul\":3179:3187   */\n  dup4\n    /* \"#utility.yul\":3175:3212   */\n  add\n    /* \"#utility.yul\":3162:3173   */\n  dup3\n    /* \"#utility.yul\":3133:3213   */\n  tag_20\n  jump\t// in\ntag_64:\n    /* \"#utility.yul\":2792:3223   */\n  pop\n  pop\n    /* \"#utility.yul\":2777:3223   */\ntag_60:\n    /* \"#utility.yul\":2687:3230   */\n  pop\n  pop\n  pop\n  jump\t// out\n    /* \"#utility.yul\":3236:3353   */\ntag_22:\n    /* \"#utility.yul\":3290:3298   */\n  0x00\n    /* \"#utility.yul\":3340:3345   */\n  dup3\n    /* \"#utility.yul\":3334:3338   */\n  dup3\n    /* \"#utility.yul\":3330:3346   */\n  shr\n    /* \"#utility.yul\":3309:3346   */\n  swap1\n  pop\n    /* \"#utility.yul\":3236:3353   */\n  swap3\n  swap2\n  pop\n  pop\n  jump\t// out\n    /* \"#utility.yul\":3359:3528   */\ntag_23:\n    /* \"#utility.yul\":3403:3409   */\n  0x00\n    /* \"#utility.yul\":3436:3487   */\n  tag_68\n    /* \"#utility.yul\":3484:3485   */\n  0x00\n    /* \"#utility.yul\":3480:3486   */\n  not\n    /* \"#utility.yul\":3472:3477   */\n  dup5\n    /* \"#utility.yul\":3469:3470   */\n  0x08\n    /* \"#utility.yul\":3465:3478   */\n  mul\n    /* \"#utility.yul\":3436:3487   */\n  tag_22\n  jump\t// in\ntag_68:\n    /* \"#utility.yul\":3432:3488   */\n  not\n    /* \"#utility.yul\":3517:3521   */\n  dup1\n    /* \"#utility.yul\":3511:3515   */\n  dup4\n    /* \"#utility.yul\":3507:3522   */\n  and\n    /* \"#utility.yul\":3497:3522   */\n  swap2\n  pop\n    /* \"#utility.yul\":3410:3528   */\n  pop\n    /* \"#utility.yul\":3359:3528   */\n  swap3\n  swap2\n  pop\n  pop\n  jump\t// out\n    /* \"#utility.yul\":3533:3828   */\ntag_24:\n    /* \"#utility.yul\":3609:3613   */\n  0x00\n    /* \"#utility.yul\":3755:3784   */\n  tag_70\n    /* \"#utility.yul\":3780:3783   */\n  dup4\n    /* \"#utility.yul\":3774:3778   */\n  dup4\n    /* \"#utility.yul\":3755:3784   */\n  tag_23\n  jump\t// in\ntag_70:\n    /* \"#utility.yul\":3747:3784   */\n  swap2\n  pop\n    /* \"#utility.yul\":3817:3820   */\n  dup3\n    /* \"#utility.yul\":3814:3815   */\n  0x02\n    /* \"#utility.yul\":3810:3821   */\n  mul\n    /* \"#utility.yul\":3804:3808   */\n  dup3\n    /* \"#utility.yul\":3801:3822   */\n  or\n    /* \"#utility.yul\":3793:3822   */\n  swap1\n  pop\n    /* \"#utility.yul\":3533:3828   */\n  swap3\n  swap2\n  pop\n  pop\n  jump\t// out\n    /* \"#utility.yul\":3833:5228   */\ntag_2:\n    /* \"#utility.yul\":3950:3987   */\n  tag_72\n    /* \"#utility.yul\":3983:3986   */\n  dup3\n    /* \"#utility.yul\":3950:3987   */\n  tag_5\n  jump\t// in\ntag_72:\n    /* \"#utility.yul\":4052:4070   */\n  0xffffffffffffffff\n    /* \"#utility.yul\":4044:4050   */\n  dup2\n    /* \"#utility.yul\":4041:4071   */\n  gt\n    /* \"#utility.yul\":4038:4094   */\n  iszero\n  tag_73\n  jumpi\n    /* \"#utility.yul\":4074:4092   */\n  tag_74\n  tag_6\n  jump\t// in\ntag_74:\n    /* \"#utility.yul\":4038:4094   */\ntag_73:\n    /* \"#utility.yul\":4118:4156   */\n  tag_75\n    /* \"#utility.yul\":4150:4154   */\n  dup3\n    /* \"#utility.yul\":4144:4155   */\n  sload\n    /* \"#utility.yul\":4118:4156   */\n  tag_8\n  jump\t// in\ntag_75:\n    /* \"#utility.yul\":4203:4270   */\n  tag_76\n    /* \"#utility.yul\":4263:4269   */\n  dup3\n    /* \"#utility.yul\":4255:4261   */\n  dup3\n    /* \"#utility.yul\":4249:4253   */\n  dup6\n    /* \"#utility.yul\":4203:4270   */\n  tag_21\n  jump\t// in\ntag_76:\n    /* \"#utility.yul\":4297:4298   */\n  0x00\n    /* \"#utility.yul\":4321:4325   */\n  0x20\n    /* \"#utility.yul\":4308:4325   */\n  swap1\n  pop\n    /* \"#utility.yul\":4353:4355   */\n  0x1f\n    /* \"#utility.yul\":4345:4351   */\n  dup4\n    /* \"#utility.yul\":4342:4356   */\n  gt\n    /* \"#utility.yul\":4370:4371   */\n  0x01\n    /* \"#utility.yul\":4365:4983   */\n  dup2\n  eq\n  tag_78\n  jumpi\n    /* \"#utility.yul\":5027:5028   */\n  0x00\n    /* \"#utility.yul\":5044:5050   */\n  dup5\n    /* \"#utility.yul\":5041:5118   */\n  iszero\n  tag_79\n  jumpi\n    /* \"#utility.yul\":5093:5102   */\n  dup3\n    /* \"#utility.yul\":5088:5091   */\n  dup8\n    /* \"#utility.yul\":5084:5103   */\n  add\n    /* \"#utility.yul\":5078:5104   */\n  mload\n    /* \"#utility.yul\":5069:5104   */\n  swap1\n  pop\n    /* \"#utility.yul\":5041:5118   */\ntag_79:\n    /* \"#utility.yul\":5144:5211   */\n  tag_80\n    /* \"#utility.yul\":5204:5210   */\n  dup6\n    /* \"#utility.yul\":5197:5202   */\n  dup3\n    /* \"#utility.yul\":5144:5211   */\n  tag_24\n  jump\t// in\ntag_80:\n    /* \"#utility.yul\":5138:5142   */\n  dup7\n    /* \"#utility.yul\":5131:5212   */\n  sstore\n    /* \"#utility.yul\":5000:5222   */\n  pop\n    /* \"#utility.yul\":4335:5222   */\n  jump(tag_77)\n    /* \"#utility.yul\":4365:4983   */\ntag_78:\n    /* \"#utility.yul\":4417:4421   */\n  0x1f\n    /* \"#utility.yul\":4413:4422   */\n  not\n    /* \"#utility.yul\":4405:4411   */\n  dup5\n    /* \"#utility.yul\":4401:4423   */\n  and\n    /* \"#utility.yul\":4451:4488   */\n  tag_81\n    /* \"#utility.yul\":4483:4487   */\n  dup7\n    /* \"#utility.yul\":4451:4488   */\n  tag_9\n  jump\t// in\ntag_81:\n    /* \"#utility.yul\":4510:4511   */\n  0x00\n    /* \"#utility.yul\":4524:4732   */\ntag_82:\n    /* \"#utility.yul\":4538:4545   */\n  dup3\n    /* \"#utility.yul\":4535:4536   */\n  dup2\n    /* \"#utility.yul\":4532:4546   */\n  lt\n    /* \"#utility.yul\":4524:4732   */\n  iszero\n  tag_84\n  jumpi\n    /* \"#utility.yul\":4617:4626   */\n  dup5\n    /* \"#utility.yul\":4612:4615   */\n  dup10\n    /* \"#utility.yul\":4608:4627   */\n  add\n    /* \"#utility.yul\":4602:4628   */\n  mload\n    /* \"#utility.yul\":4594:4600   */\n  dup3\n    /* \"#utility.yul\":4587:4629   */\n  sstore\n    /* \"#utility.yul\":4668:4669   */\n  0x01\n    /* \"#utility.yul\":4660:4666   */\n  dup3\n    /* \"#utility.yul\":4656:4670   */\n  add\n    /* \"#utility.yul\":4646:4670   */\n  swap2\n  pop\n    /* \"#utility.yul\":4715:4717   */\n  0x20\n    /* \"#utility.yul\":4704:4713   */\n  dup6\n    /* \"#utility.yul\":4700:4718   */\n  add\n    /* \"#utility.yul\":4687:4718   */\n  swap5\n  pop\n    /* \"#utility.yul\":4561:4565   */\n  0x20\n    /* \"#utility.yul\":4558:4559   */\n  dup2\n    /* \"#utility.yul\":4554:4566   */\n  add\n    /* \"#utility.yul\":4549:4566   */\n  swap1\n  pop\n    /* \"#utility.yul\":4524:4732   */\n  jump(tag_82)\ntag_84:\n    /* \"#utility.yul\":4760:4766   */\n  dup7\n    /* \"#utility.yul\":4751:4758   */\n  dup4\n    /* \"#utility.yul\":4748:4767   */\n  lt\n    /* \"#utility.yul\":4745:4924   */\n  iszero\n  tag_85\n  jumpi\n    /* \"#utility.yul\":4818:4827   */\n  dup5\n    /* \"#utility.yul\":4813:4816   */\n  dup10\n    /* \"#utility.yul\":4809:4828   */\n  add\n    /* \"#utility.yul\":4803:4829   */\n  mload\n    /* \"#utility.yul\":4861:4909   */\n  tag_86\n    /* \"#utility.yul\":4903:4907   */\n  0x1f\n    /* \"#utility.yul\":4895:4901   */\n  dup10\n    /* \"#utility.yul\":4891:4908   */\n  and\n    /* \"#utility.yul\":4880:4889   */\n  dup3\n    /* \"#utility.yul\":4861:4909   */\n  tag_23\n  jump\t// in\ntag_86:\n    /* \"#utility.yul\":4853:4859   */\n  dup4\n    /* \"#utility.yul\":4846:4910   */\n  sstore\n    /* \"#utility.yul\":4768:4924   */\n  pop\n    /* \"#utility.yul\":4745:4924   */\ntag_85:\n    /* \"#utility.yul\":4970:4971   */\n  0x01\n    /* \"#utility.yul\":4966:4967   */\n  0x02\n    /* \"#utility.yul\":4958:4964   */\n  dup9\n    /* \"#utility.yul\":4954:4968   */\n  mul\n    /* \"#utility.yul\":4950:4972   */\n  add\n    /* \"#utility.yul\":4944:4948   */\n  dup9\n    /* \"#utility.yul\":4937:4973   */\n  sstore\n    /* \"#utility.yul\":4372:4983   */\n  pop\n  pop\n  pop\n    /* \"#utility.yul\":4335:5222   */\ntag_77:\n  pop\n    /* \"#utility.yul\":3925:5228   */\n  pop\n  pop\n  pop\n    /* \"#utility.yul\":3833:5228   */\n  pop\n  pop\n  jump\t// out\n    /* \"contracts/personContract.sol\":66:537  contract Person{... */\ntag_4:\n  dataSize(sub_0)\n  dup1\n  dataOffset(sub_0)\n  0x00\n  codecopy\n  0x00\n  return\nstop\n\nsub_0: assembly {\n        /* \"contracts/personContract.sol\":66:537  contract Person{... */\n      mstore(0x40, 0x80)\n      callvalue\n      dup1\n      iszero\n      tag_1\n      jumpi\n      0x00\n      dup1\n      revert\n    tag_1:\n      pop\n      jumpi(tag_2, lt(calldatasize, 0x04))\n      shr(0xe0, calldataload(0x00))\n      dup1\n      0x2a58ed80\n      eq\n      tag_3\n      jumpi\n      dup1\n      0x4e863271\n      eq\n      tag_4\n      jumpi\n      dup1\n      0xb55003fa\n      eq\n      tag_5\n      jumpi\n      dup1\n      0xcb4685a6\n      eq\n      tag_6\n      jumpi\n    tag_2:\n      0x00\n      dup1\n      revert\n        /* \"contracts/personContract.sol\":451:535  function getPersonAge () public view returns (uint){... */\n    tag_3:\n      tag_7\n      tag_8\n      jump\t// in\n    tag_7:\n      mload(0x40)\n      tag_9\n      swap2\n      swap1\n      tag_10\n      jump\t// in\n    tag_9:\n      mload(0x40)\n      dup1\n      swap2\n      sub\n      swap1\n      return\n        /* \"contracts/personContract.sol\":163:257  function setPersonName(string memory _name) virtual public {... */\n    tag_4:\n      tag_11\n      0x04\n      dup1\n      calldatasize\n      sub\n      dup2\n      add\n      swap1\n      tag_12\n      swap2\n      swap1\n      tag_13\n      jump\t// in\n    tag_12:\n      tag_14\n      jump\t// in\n    tag_11:\n      stop\n        /* \"contracts/personContract.sol\":350:445  function getPersonName () public view returns (string memory){... */\n    tag_5:\n      tag_15\n      tag_16\n      jump\t// in\n    tag_15:\n      mload(0x40)\n      tag_17\n      swap2\n      swap1\n      tag_18\n      jump\t// in\n    tag_17:\n      mload(0x40)\n      dup1\n      swap2\n      sub\n      swap1\n      return\n        /* \"contracts/personContract.sol\":263:344  function setPersonAge(uint _age) public virtual {... */\n    tag_6:\n      tag_19\n      0x04\n      dup1\n      calldatasize\n      sub\n      dup2\n      add\n      swap1\n      tag_20\n      swap2\n      swap1\n      tag_21\n      jump\t// in\n    tag_20:\n      tag_22\n      jump\t// in\n    tag_19:\n      stop\n        /* \"contracts/personContract.sol\":451:535  function getPersonAge () public view returns (uint){... */\n    tag_8:\n        /* \"contracts/personContract.sol\":497:501  uint */\n      0x00\n        /* \"contracts/personContract.sol\":519:528  personAge */\n      sload(0x01)\n        /* \"contracts/personContract.sol\":512:528  return personAge */\n      swap1\n      pop\n        /* \"contracts/personContract.sol\":451:535  function getPersonAge () public view returns (uint){... */\n      swap1\n      jump\t// out\n        /* \"contracts/personContract.sol\":163:257  function setPersonName(string memory _name) virtual public {... */\n    tag_14:\n        /* \"contracts/personContract.sol\":245:250  _name */\n      dup1\n        /* \"contracts/personContract.sol\":232:242  personName */\n      0x00\n        /* \"contracts/personContract.sol\":232:250  personName = _name */\n      swap1\n      dup2\n      tag_25\n      swap2\n      swap1\n      tag_26\n      jump\t// in\n    tag_25:\n      pop\n        /* \"contracts/personContract.sol\":163:257  function setPersonName(string memory _name) virtual public {... */\n      pop\n      jump\t// out\n        /* \"contracts/personContract.sol\":350:445  function getPersonName () public view returns (string memory){... */\n    tag_16:\n        /* \"contracts/personContract.sol\":397:410  string memory */\n      0x60\n        /* \"contracts/personContract.sol\":428:438  personName */\n      0x00\n        /* \"contracts/personContract.sol\":421:438  return personName */\n      dup1\n      sload\n      tag_28\n      swap1\n      tag_29\n      jump\t// in\n    tag_28:\n      dup1\n      0x1f\n      add\n      0x20\n      dup1\n      swap2\n      div\n      mul\n      0x20\n      add\n      mload(0x40)\n      swap1\n      dup2\n      add\n      0x40\n      mstore\n      dup1\n      swap3\n      swap2\n      swap1\n      dup2\n      dup2\n      mstore\n      0x20\n      add\n      dup3\n      dup1\n      sload\n      tag_30\n      swap1\n      tag_29\n      jump\t// in\n    tag_30:\n      dup1\n      iszero\n      tag_31\n      jumpi\n      dup1\n      0x1f\n      lt\n      tag_32\n      jumpi\n      0x0100\n      dup1\n      dup4\n      sload\n      div\n      mul\n      dup4\n      mstore\n      swap2\n      0x20\n      add\n      swap2\n      jump(tag_31)\n    tag_32:\n      dup3\n      add\n      swap2\n      swap1\n      0x00\n      mstore\n      keccak256(0x00, 0x20)\n      swap1\n    tag_33:\n      dup2\n      sload\n      dup2\n      mstore\n      swap1\n      0x01\n      add\n      swap1\n      0x20\n      add\n      dup1\n      dup4\n      gt\n      tag_33\n      jumpi\n      dup3\n      swap1\n      sub\n      0x1f\n      and\n      dup3\n      add\n      swap2\n    tag_31:\n      pop\n      pop\n      pop\n      pop\n      pop\n      swap1\n      pop\n        /* \"contracts/personContract.sol\":350:445  function getPersonName () public view returns (string memory){... */\n      swap1\n      jump\t// out\n        /* \"contracts/personContract.sol\":263:344  function setPersonAge(uint _age) public virtual {... */\n    tag_22:\n        /* \"contracts/personContract.sol\":333:337  _age */\n      dup1\n        /* \"contracts/personContract.sol\":321:330  personAge */\n      0x01\n        /* \"contracts/personContract.sol\":321:337  personAge = _age */\n      dup2\n      swap1\n      sstore\n      pop\n        /* \"contracts/personContract.sol\":263:344  function setPersonAge(uint _age) public virtual {... */\n      pop\n      jump\t// out\n        /* \"#utility.yul\":7:84   */\n    tag_35:\n        /* \"#utility.yul\":44:51   */\n      0x00\n        /* \"#utility.yul\":73:78   */\n      dup2\n        /* \"#utility.yul\":62:78   */\n      swap1\n      pop\n        /* \"#utility.yul\":7:84   */\n      swap2\n      swap1\n      pop\n      jump\t// out\n        /* \"#utility.yul\":90:208   */\n    tag_36:\n        /* \"#utility.yul\":177:201   */\n      tag_75\n        /* \"#utility.yul\":195:200   */\n      dup2\n        /* \"#utility.yul\":177:201   */\n      tag_35\n      jump\t// in\n    tag_75:\n        /* \"#utility.yul\":172:175   */\n      dup3\n        /* \"#utility.yul\":165:202   */\n      mstore\n        /* \"#utility.yul\":90:208   */\n      pop\n      pop\n      jump\t// out\n        /* \"#utility.yul\":214:436   */\n    tag_10:\n        /* \"#utility.yul\":307:311   */\n      0x00\n        /* \"#utility.yul\":345:347   */\n      0x20\n        /* \"#utility.yul\":334:343   */\n      dup3\n        /* \"#utility.yul\":330:348   */\n      add\n        /* \"#utility.yul\":322:348   */\n      swap1\n      pop\n        /* \"#utility.yul\":358:429   */\n      tag_77\n        /* \"#utility.yul\":426:427   */\n      0x00\n        /* \"#utility.yul\":415:424   */\n      dup4\n        /* \"#utility.yul\":411:428   */\n      add\n        /* \"#utility.yul\":402:408   */\n      dup5\n        /* \"#utility.yul\":358:429   */\n      tag_36\n      jump\t// in\n    tag_77:\n        /* \"#utility.yul\":214:436   */\n      swap3\n      swap2\n      pop\n      pop\n      jump\t// out\n        /* \"#utility.yul\":442:517   */\n    tag_37:\n        /* \"#utility.yul\":475:481   */\n      0x00\n        /* \"#utility.yul\":508:510   */\n      0x40\n        /* \"#utility.yul\":502:511   */\n      mload\n        /* \"#utility.yul\":492:511   */\n      swap1\n      pop\n        /* \"#utility.yul\":442:517   */\n      swap1\n      jump\t// out\n        /* \"#utility.yul\":523:640   */\n    tag_38:\n        /* \"#utility.yul\":632:633   */\n      0x00\n        /* \"#utility.yul\":629:630   */\n      dup1\n        /* \"#utility.yul\":622:634   */\n      revert\n        /* \"#utility.yul\":646:763   */\n    tag_39:\n        /* \"#utility.yul\":755:756   */\n      0x00\n        /* \"#utility.yul\":752:753   */\n      dup1\n        /* \"#utility.yul\":745:757   */\n      revert\n        /* \"#utility.yul\":769:886   */\n    tag_40:\n        /* \"#utility.yul\":878:879   */\n      0x00\n        /* \"#utility.yul\":875:876   */\n      dup1\n        /* \"#utility.yul\":868:880   */\n      revert\n        /* \"#utility.yul\":892:1009   */\n    tag_41:\n        /* \"#utility.yul\":1001:1002   */\n      0x00\n        /* \"#utility.yul\":998:999   */\n      dup1\n        /* \"#utility.yul\":991:1003   */\n      revert\n        /* \"#utility.yul\":1015:1117   */\n    tag_42:\n        /* \"#utility.yul\":1056:1062   */\n      0x00\n        /* \"#utility.yul\":1107:1109   */\n      0x1f\n        /* \"#utility.yul\":1103:1110   */\n      not\n        /* \"#utility.yul\":1098:1100   */\n      0x1f\n        /* \"#utility.yul\":1091:1096   */\n      dup4\n        /* \"#utility.yul\":1087:1101   */\n      add\n        /* \"#utility.yul\":1083:1111   */\n      and\n        /* \"#utility.yul\":1073:1111   */\n      swap1\n      pop\n        /* \"#utility.yul\":1015:1117   */\n      swap2\n      swap1\n      pop\n      jump\t// out\n        /* \"#utility.yul\":1123:1303   */\n    tag_43:\n        /* \"#utility.yul\":1171:1248   */\n      0x4e487b7100000000000000000000000000000000000000000000000000000000\n        /* \"#utility.yul\":1168:1169   */\n      0x00\n        /* \"#utility.yul\":1161:1249   */\n      mstore\n        /* \"#utility.yul\":1268:1272   */\n      0x41\n        /* \"#utility.yul\":1265:1266   */\n      0x04\n        /* \"#utility.yul\":1258:1273   */\n      mstore\n        /* \"#utility.yul\":1292:1296   */\n      0x24\n        /* \"#utility.yul\":1289:1290   */\n      0x00\n        /* \"#utility.yul\":1282:1297   */\n      revert\n        /* \"#utility.yul\":1309:1590   */\n    tag_44:\n        /* \"#utility.yul\":1392:1419   */\n      tag_86\n        /* \"#utility.yul\":1414:1418   */\n      dup3\n        /* \"#utility.yul\":1392:1419   */\n      tag_42\n      jump\t// in\n    tag_86:\n        /* \"#utility.yul\":1384:1390   */\n      dup2\n        /* \"#utility.yul\":1380:1420   */\n      add\n        /* \"#utility.yul\":1522:1528   */\n      dup2\n        /* \"#utility.yul\":1510:1520   */\n      dup2\n        /* \"#utility.yul\":1507:1529   */\n      lt\n        /* \"#utility.yul\":1486:1504   */\n      0xffffffffffffffff\n        /* \"#utility.yul\":1474:1484   */\n      dup3\n        /* \"#utility.yul\":1471:1505   */\n      gt\n        /* \"#utility.yul\":1468:1530   */\n      or\n        /* \"#utility.yul\":1465:1553   */\n      iszero\n      tag_87\n      jumpi\n        /* \"#utility.yul\":1533:1551   */\n      tag_88\n      tag_43\n      jump\t// in\n    tag_88:\n        /* \"#utility.yul\":1465:1553   */\n    tag_87:\n        /* \"#utility.yul\":1573:1583   */\n      dup1\n        /* \"#utility.yul\":1569:1571   */\n      0x40\n        /* \"#utility.yul\":1562:1584   */\n      mstore\n        /* \"#utility.yul\":1352:1590   */\n      pop\n        /* \"#utility.yul\":1309:1590   */\n      pop\n      pop\n      jump\t// out\n        /* \"#utility.yul\":1596:1725   */\n    tag_45:\n        /* \"#utility.yul\":1630:1636   */\n      0x00\n        /* \"#utility.yul\":1657:1677   */\n      tag_90\n      tag_37\n      jump\t// in\n    tag_90:\n        /* \"#utility.yul\":1647:1677   */\n      swap1\n      pop\n        /* \"#utility.yul\":1686:1719   */\n      tag_91\n        /* \"#utility.yul\":1714:1718   */\n      dup3\n        /* \"#utility.yul\":1706:1712   */\n      dup3\n        /* \"#utility.yul\":1686:1719   */\n      tag_44\n      jump\t// in\n    tag_91:\n        /* \"#utility.yul\":1596:1725   */\n      swap2\n      swap1\n      pop\n      jump\t// out\n        /* \"#utility.yul\":1731:2039   */\n    tag_46:\n        /* \"#utility.yul\":1793:1797   */\n      0x00\n        /* \"#utility.yul\":1883:1901   */\n      0xffffffffffffffff\n        /* \"#utility.yul\":1875:1881   */\n      dup3\n        /* \"#utility.yul\":1872:1902   */\n      gt\n        /* \"#utility.yul\":1869:1925   */\n      iszero\n      tag_93\n      jumpi\n        /* \"#utility.yul\":1905:1923   */\n      tag_94\n      tag_43\n      jump\t// in\n    tag_94:\n        /* \"#utility.yul\":1869:1925   */\n    tag_93:\n        /* \"#utility.yul\":1943:1972   */\n      tag_95\n        /* \"#utility.yul\":1965:1971   */\n      dup3\n        /* \"#utility.yul\":1943:1972   */\n      tag_42\n      jump\t// in\n    tag_95:\n        /* \"#utility.yul\":1935:1972   */\n      swap1\n      pop\n        /* \"#utility.yul\":2027:2031   */\n      0x20\n        /* \"#utility.yul\":2021:2025   */\n      dup2\n        /* \"#utility.yul\":2017:2032   */\n      add\n        /* \"#utility.yul\":2009:2032   */\n      swap1\n      pop\n        /* \"#utility.yul\":1731:2039   */\n      swap2\n      swap1\n      pop\n      jump\t// out\n        /* \"#utility.yul\":2045:2193   */\n    tag_47:\n        /* \"#utility.yul\":2143:2149   */\n      dup3\n        /* \"#utility.yul\":2138:2141   */\n      dup2\n        /* \"#utility.yul\":2133:2136   */\n      dup4\n        /* \"#utility.yul\":2120:2150   */\n      calldatacopy\n        /* \"#utility.yul\":2184:2185   */\n      0x00\n        /* \"#utility.yul\":2175:2181   */\n      dup4\n        /* \"#utility.yul\":2170:2173   */\n      dup4\n        /* \"#utility.yul\":2166:2182   */\n      add\n        /* \"#utility.yul\":2159:2186   */\n      mstore\n        /* \"#utility.yul\":2045:2193   */\n      pop\n      pop\n      pop\n      jump\t// out\n        /* \"#utility.yul\":2199:2624   */\n    tag_48:\n        /* \"#utility.yul\":2277:2282   */\n      0x00\n        /* \"#utility.yul\":2302:2368   */\n      tag_98\n        /* \"#utility.yul\":2318:2367   */\n      tag_99\n        /* \"#utility.yul\":2360:2366   */\n      dup5\n        /* \"#utility.yul\":2318:2367   */\n      tag_46\n      jump\t// in\n    tag_99:\n        /* \"#utility.yul\":2302:2368   */\n      tag_45\n      jump\t// in\n    tag_98:\n        /* \"#utility.yul\":2293:2368   */\n      swap1\n      pop\n        /* \"#utility.yul\":2391:2397   */\n      dup3\n        /* \"#utility.yul\":2384:2389   */\n      dup2\n        /* \"#utility.yul\":2377:2398   */\n      mstore\n        /* \"#utility.yul\":2429:2433   */\n      0x20\n        /* \"#utility.yul\":2422:2427   */\n      dup2\n        /* \"#utility.yul\":2418:2434   */\n      add\n        /* \"#utility.yul\":2467:2470   */\n      dup5\n        /* \"#utility.yul\":2458:2464   */\n      dup5\n        /* \"#utility.yul\":2453:2456   */\n      dup5\n        /* \"#utility.yul\":2449:2465   */\n      add\n        /* \"#utility.yul\":2446:2471   */\n      gt\n        /* \"#utility.yul\":2443:2555   */\n      iszero\n      tag_100\n      jumpi\n        /* \"#utility.yul\":2474:2553   */\n      tag_101\n      tag_41\n      jump\t// in\n    tag_101:\n        /* \"#utility.yul\":2443:2555   */\n    tag_100:\n        /* \"#utility.yul\":2564:2618   */\n      tag_102\n        /* \"#utility.yul\":2611:2617   */\n      dup5\n        /* \"#utility.yul\":2606:2609   */\n      dup3\n        /* \"#utility.yul\":2601:2604   */\n      dup6\n        /* \"#utility.yul\":2564:2618   */\n      tag_47\n      jump\t// in\n    tag_102:\n        /* \"#utility.yul\":2283:2624   */\n      pop\n        /* \"#utility.yul\":2199:2624   */\n      swap4\n      swap3\n      pop\n      pop\n      pop\n      jump\t// out\n        /* \"#utility.yul\":2644:2984   */\n    tag_49:\n        /* \"#utility.yul\":2700:2705   */\n      0x00\n        /* \"#utility.yul\":2749:2752   */\n      dup3\n        /* \"#utility.yul\":2742:2746   */\n      0x1f\n        /* \"#utility.yul\":2734:2740   */\n      dup4\n        /* \"#utility.yul\":2730:2747   */\n      add\n        /* \"#utility.yul\":2726:2753   */\n      slt\n        /* \"#utility.yul\":2716:2838   */\n      tag_104\n      jumpi\n        /* \"#utility.yul\":2757:2836   */\n      tag_105\n      tag_40\n      jump\t// in\n    tag_105:\n        /* \"#utility.yul\":2716:2838   */\n    tag_104:\n        /* \"#utility.yul\":2874:2880   */\n      dup2\n        /* \"#utility.yul\":2861:2881   */\n      calldataload\n        /* \"#utility.yul\":2899:2978   */\n      tag_106\n        /* \"#utility.yul\":2974:2977   */\n      dup5\n        /* \"#utility.yul\":2966:2972   */\n      dup3\n        /* \"#utility.yul\":2959:2963   */\n      0x20\n        /* \"#utility.yul\":2951:2957   */\n      dup7\n        /* \"#utility.yul\":2947:2964   */\n      add\n        /* \"#utility.yul\":2899:2978   */\n      tag_48\n      jump\t// in\n    tag_106:\n        /* \"#utility.yul\":2890:2978   */\n      swap2\n      pop\n        /* \"#utility.yul\":2706:2984   */\n      pop\n        /* \"#utility.yul\":2644:2984   */\n      swap3\n      swap2\n      pop\n      pop\n      jump\t// out\n        /* \"#utility.yul\":2990:3499   */\n    tag_13:\n        /* \"#utility.yul\":3059:3065   */\n      0x00\n        /* \"#utility.yul\":3108:3110   */\n      0x20\n        /* \"#utility.yul\":3096:3105   */\n      dup3\n        /* \"#utility.yul\":3087:3094   */\n      dup5\n        /* \"#utility.yul\":3083:3106   */\n      sub\n        /* \"#utility.yul\":3079:3111   */\n      slt\n        /* \"#utility.yul\":3076:3195   */\n      iszero\n      tag_108\n      jumpi\n        /* \"#utility.yul\":3114:3193   */\n      tag_109\n      tag_38\n      jump\t// in\n    tag_109:\n        /* \"#utility.yul\":3076:3195   */\n    tag_108:\n        /* \"#utility.yul\":3262:3263   */\n      0x00\n        /* \"#utility.yul\":3251:3260   */\n      dup3\n        /* \"#utility.yul\":3247:3264   */\n      add\n        /* \"#utility.yul\":3234:3265   */\n      calldataload\n        /* \"#utility.yul\":3292:3310   */\n      0xffffffffffffffff\n        /* \"#utility.yul\":3284:3290   */\n      dup2\n        /* \"#utility.yul\":3281:3311   */\n      gt\n        /* \"#utility.yul\":3278:3395   */\n      iszero\n      tag_110\n      jumpi\n        /* \"#utility.yul\":3314:3393   */\n      tag_111\n      tag_39\n      jump\t// in\n    tag_111:\n        /* \"#utility.yul\":3278:3395   */\n    tag_110:\n        /* \"#utility.yul\":3419:3482   */\n      tag_112\n        /* \"#utility.yul\":3474:3481   */\n      dup5\n        /* \"#utility.yul\":3465:3471   */\n      dup3\n        /* \"#utility.yul\":3454:3463   */\n      dup6\n        /* \"#utility.yul\":3450:3472   */\n      add\n        /* \"#utility.yul\":3419:3482   */\n      tag_49\n      jump\t// in\n    tag_112:\n        /* \"#utility.yul\":3409:3482   */\n      swap2\n      pop\n        /* \"#utility.yul\":3205:3492   */\n      pop\n        /* \"#utility.yul\":2990:3499   */\n      swap3\n      swap2\n      pop\n      pop\n      jump\t// out\n        /* \"#utility.yul\":3505:3604   */\n    tag_50:\n        /* \"#utility.yul\":3557:3563   */\n      0x00\n        /* \"#utility.yul\":3591:3596   */\n      dup2\n        /* \"#utility.yul\":3585:3597   */\n      mload\n        /* \"#utility.yul\":3575:3597   */\n      swap1\n      pop\n        /* \"#utility.yul\":3505:3604   */\n      swap2\n      swap1\n      pop\n      jump\t// out\n        /* \"#utility.yul\":3610:3779   */\n    tag_51:\n        /* \"#utility.yul\":3694:3705   */\n      0x00\n        /* \"#utility.yul\":3728:3734   */\n      dup3\n        /* \"#utility.yul\":3723:3726   */\n      dup3\n        /* \"#utility.yul\":3716:3735   */\n      mstore\n        /* \"#utility.yul\":3768:3772   */\n      0x20\n        /* \"#utility.yul\":3763:3766   */\n      dup3\n        /* \"#utility.yul\":3759:3773   */\n      add\n        /* \"#utility.yul\":3744:3773   */\n      swap1\n      pop\n        /* \"#utility.yul\":3610:3779   */\n      swap3\n      swap2\n      pop\n      pop\n      jump\t// out\n        /* \"#utility.yul\":3785:3924   */\n    tag_52:\n        /* \"#utility.yul\":3874:3880   */\n      dup3\n        /* \"#utility.yul\":3869:3872   */\n      dup2\n        /* \"#utility.yul\":3864:3867   */\n      dup4\n        /* \"#utility.yul\":3858:3881   */\n      mcopy\n        /* \"#utility.yul\":3915:3916   */\n      0x00\n        /* \"#utility.yul\":3906:3912   */\n      dup4\n        /* \"#utility.yul\":3901:3904   */\n      dup4\n        /* \"#utility.yul\":3897:3913   */\n      add\n        /* \"#utility.yul\":3890:3917   */\n      mstore\n        /* \"#utility.yul\":3785:3924   */\n      pop\n      pop\n      pop\n      jump\t// out\n        /* \"#utility.yul\":3930:4307   */\n    tag_53:\n        /* \"#utility.yul\":4018:4021   */\n      0x00\n        /* \"#utility.yul\":4046:4085   */\n      tag_117\n        /* \"#utility.yul\":4079:4084   */\n      dup3\n        /* \"#utility.yul\":4046:4085   */\n      tag_50\n      jump\t// in\n    tag_117:\n        /* \"#utility.yul\":4101:4172   */\n      tag_118\n        /* \"#utility.yul\":4165:4171   */\n      dup2\n        /* \"#utility.yul\":4160:4163   */\n      dup6\n        /* \"#utility.yul\":4101:4172   */\n      tag_51\n      jump\t// in\n    tag_118:\n        /* \"#utility.yul\":4094:4172   */\n      swap4\n      pop\n        /* \"#utility.yul\":4181:4246   */\n      tag_119\n        /* \"#utility.yul\":4239:4245   */\n      dup2\n        /* \"#utility.yul\":4234:4237   */\n      dup6\n        /* \"#utility.yul\":4227:4231   */\n      0x20\n        /* \"#utility.yul\":4220:4225   */\n      dup7\n        /* \"#utility.yul\":4216:4232   */\n      add\n        /* \"#utility.yul\":4181:4246   */\n      tag_52\n      jump\t// in\n    tag_119:\n        /* \"#utility.yul\":4271:4300   */\n      tag_120\n        /* \"#utility.yul\":4293:4299   */\n      dup2\n        /* \"#utility.yul\":4271:4300   */\n      tag_42\n      jump\t// in\n    tag_120:\n        /* \"#utility.yul\":4266:4269   */\n      dup5\n        /* \"#utility.yul\":4262:4301   */\n      add\n        /* \"#utility.yul\":4255:4301   */\n      swap2\n      pop\n        /* \"#utility.yul\":4022:4307   */\n      pop\n        /* \"#utility.yul\":3930:4307   */\n      swap3\n      swap2\n      pop\n      pop\n      jump\t// out\n        /* \"#utility.yul\":4313:4626   */\n    tag_18:\n        /* \"#utility.yul\":4426:4430   */\n      0x00\n        /* \"#utility.yul\":4464:4466   */\n      0x20\n        /* \"#utility.yul\":4453:4462   */\n      dup3\n        /* \"#utility.yul\":4449:4467   */\n      add\n        /* \"#utility.yul\":4441:4467   */\n      swap1\n      pop\n        /* \"#utility.yul\":4513:4522   */\n      dup2\n        /* \"#utility.yul\":4507:4511   */\n      dup2\n        /* \"#utility.yul\":4503:4523   */\n      sub\n        /* \"#utility.yul\":4499:4500   */\n      0x00\n        /* \"#utility.yul\":4488:4497   */\n      dup4\n        /* \"#utility.yul\":4484:4501   */\n      add\n        /* \"#utility.yul\":4477:4524   */\n      mstore\n        /* \"#utility.yul\":4541:4619   */\n      tag_122\n        /* \"#utility.yul\":4614:4618   */\n      dup2\n        /* \"#utility.yul\":4605:4611   */\n      dup5\n        /* \"#utility.yul\":4541:4619   */\n      tag_53\n      jump\t// in\n    tag_122:\n        /* \"#utility.yul\":4533:4619   */\n      swap1\n      pop\n        /* \"#utility.yul\":4313:4626   */\n      swap3\n      swap2\n      pop\n      pop\n      jump\t// out\n        /* \"#utility.yul\":4632:4754   */\n    tag_54:\n        /* \"#utility.yul\":4705:4729   */\n      tag_124\n        /* \"#utility.yul\":4723:4728   */\n      dup2\n        /* \"#utility.yul\":4705:4729   */\n      tag_35\n      jump\t// in\n    tag_124:\n        /* \"#utility.yul\":4698:4703   */\n      dup2\n        /* \"#utility.yul\":4695:4730   */\n      eq\n        /* \"#utility.yul\":4685:4748   */\n      tag_125\n      jumpi\n        /* \"#utility.yul\":4744:4745   */\n      0x00\n        /* \"#utility.yul\":4741:4742   */\n      dup1\n        /* \"#utility.yul\":4734:4746   */\n      revert\n        /* \"#utility.yul\":4685:4748   */\n    tag_125:\n        /* \"#utility.yul\":4632:4754   */\n      pop\n      jump\t// out\n        /* \"#utility.yul\":4760:4899   */\n    tag_55:\n        /* \"#utility.yul\":4806:4811   */\n      0x00\n        /* \"#utility.yul\":4844:4850   */\n      dup2\n        /* \"#utility.yul\":4831:4851   */\n      calldataload\n        /* \"#utility.yul\":4822:4851   */\n      swap1\n      pop\n        /* \"#utility.yul\":4860:4893   */\n      tag_127\n        /* \"#utility.yul\":4887:4892   */\n      dup2\n        /* \"#utility.yul\":4860:4893   */\n      tag_54\n      jump\t// in\n    tag_127:\n        /* \"#utility.yul\":4760:4899   */\n      swap3\n      swap2\n      pop\n      pop\n      jump\t// out\n        /* \"#utility.yul\":4905:5234   */\n    tag_21:\n        /* \"#utility.yul\":4964:4970   */\n      0x00\n        /* \"#utility.yul\":5013:5015   */\n      0x20\n        /* \"#utility.yul\":5001:5010   */\n      dup3\n        /* \"#utility.yul\":4992:4999   */\n      dup5\n        /* \"#utility.yul\":4988:5011   */\n      sub\n        /* \"#utility.yul\":4984:5016   */\n      slt\n        /* \"#utility.yul\":4981:5100   */\n      iszero\n      tag_129\n      jumpi\n        /* \"#utility.yul\":5019:5098   */\n      tag_130\n      tag_38\n      jump\t// in\n    tag_130:\n        /* \"#utility.yul\":4981:5100   */\n    tag_129:\n        /* \"#utility.yul\":5139:5140   */\n      0x00\n        /* \"#utility.yul\":5164:5217   */\n      tag_131\n        /* \"#utility.yul\":5209:5216   */\n      dup5\n        /* \"#utility.yul\":5200:5206   */\n      dup3\n        /* \"#utility.yul\":5189:5198   */\n      dup6\n        /* \"#utility.yul\":5185:5207   */\n      add\n        /* \"#utility.yul\":5164:5217   */\n      tag_55\n      jump\t// in\n    tag_131:\n        /* \"#utility.yul\":5154:5217   */\n      swap2\n      pop\n        /* \"#utility.yul\":5110:5227   */\n      pop\n        /* \"#utility.yul\":4905:5234   */\n      swap3\n      swap2\n      pop\n      pop\n      jump\t// out\n        /* \"#utility.yul\":5240:5420   */\n    tag_56:\n        /* \"#utility.yul\":5288:5365   */\n      0x4e487b7100000000000000000000000000000000000000000000000000000000\n        /* \"#utility.yul\":5285:5286   */\n      0x00\n        /* \"#utility.yul\":5278:5366   */\n      mstore\n        /* \"#utility.yul\":5385:5389   */\n      0x22\n        /* \"#utility.yul\":5382:5383   */\n      0x04\n        /* \"#utility.yul\":5375:5390   */\n      mstore\n        /* \"#utility.yul\":5409:5413   */\n      0x24\n        /* \"#utility.yul\":5406:5407   */\n      0x00\n        /* \"#utility.yul\":5399:5414   */\n      revert\n        /* \"#utility.yul\":5426:5746   */\n    tag_29:\n        /* \"#utility.yul\":5470:5476   */\n      0x00\n        /* \"#utility.yul\":5507:5508   */\n      0x02\n        /* \"#utility.yul\":5501:5505   */\n      dup3\n        /* \"#utility.yul\":5497:5509   */\n      div\n        /* \"#utility.yul\":5487:5509   */\n      swap1\n      pop\n        /* \"#utility.yul\":5554:5555   */\n      0x01\n        /* \"#utility.yul\":5548:5552   */\n      dup3\n        /* \"#utility.yul\":5544:5556   */\n      and\n        /* \"#utility.yul\":5575:5593   */\n      dup1\n        /* \"#utility.yul\":5565:5646   */\n      tag_134\n      jumpi\n        /* \"#utility.yul\":5631:5635   */\n      0x7f\n        /* \"#utility.yul\":5623:5629   */\n      dup3\n        /* \"#utility.yul\":5619:5636   */\n      and\n        /* \"#utility.yul\":5609:5636   */\n      swap2\n      pop\n        /* \"#utility.yul\":5565:5646   */\n    tag_134:\n        /* \"#utility.yul\":5693:5695   */\n      0x20\n        /* \"#utility.yul\":5685:5691   */\n      dup3\n        /* \"#utility.yul\":5682:5696   */\n      lt\n        /* \"#utility.yul\":5662:5680   */\n      dup2\n        /* \"#utility.yul\":5659:5697   */\n      sub\n        /* \"#utility.yul\":5656:5740   */\n      tag_135\n      jumpi\n        /* \"#utility.yul\":5712:5730   */\n      tag_136\n      tag_56\n      jump\t// in\n    tag_136:\n        /* \"#utility.yul\":5656:5740   */\n    tag_135:\n        /* \"#utility.yul\":5477:5746   */\n      pop\n        /* \"#utility.yul\":5426:5746   */\n      swap2\n      swap1\n      pop\n      jump\t// out\n        /* \"#utility.yul\":5752:5893   */\n    tag_57:\n        /* \"#utility.yul\":5801:5805   */\n      0x00\n        /* \"#utility.yul\":5824:5827   */\n      dup2\n        /* \"#utility.yul\":5816:5827   */\n      swap1\n      pop\n        /* \"#utility.yul\":5847:5850   */\n      dup2\n        /* \"#utility.yul\":5844:5845   */\n      0x00\n        /* \"#utility.yul\":5837:5851   */\n      mstore\n        /* \"#utility.yul\":5881:5885   */\n      0x20\n        /* \"#utility.yul\":5878:5879   */\n      0x00\n        /* \"#utility.yul\":5868:5886   */\n      keccak256\n        /* \"#utility.yul\":5860:5886   */\n      swap1\n      pop\n        /* \"#utility.yul\":5752:5893   */\n      swap2\n      swap1\n      pop\n      jump\t// out\n        /* \"#utility.yul\":5899:5992   */\n    tag_58:\n        /* \"#utility.yul\":5936:5942   */\n      0x00\n        /* \"#utility.yul\":5983:5985   */\n      0x20\n        /* \"#utility.yul\":5978:5980   */\n      0x1f\n        /* \"#utility.yul\":5971:5976   */\n      dup4\n        /* \"#utility.yul\":5967:5981   */\n      add\n        /* \"#utility.yul\":5963:5986   */\n      div\n        /* \"#utility.yul\":5953:5986   */\n      swap1\n      pop\n        /* \"#utility.yul\":5899:5992   */\n      swap2\n      swap1\n      pop\n      jump\t// out\n        /* \"#utility.yul\":5998:6105   */\n    tag_59:\n        /* \"#utility.yul\":6042:6050   */\n      0x00\n        /* \"#utility.yul\":6092:6097   */\n      dup3\n        /* \"#utility.yul\":6086:6090   */\n      dup3\n        /* \"#utility.yul\":6082:6098   */\n      shl\n        /* \"#utility.yul\":6061:6098   */\n      swap1\n      pop\n        /* \"#utility.yul\":5998:6105   */\n      swap3\n      swap2\n      pop\n      pop\n      jump\t// out\n        /* \"#utility.yul\":6111:6504   */\n    tag_60:\n        /* \"#utility.yul\":6180:6186   */\n      0x00\n        /* \"#utility.yul\":6230:6231   */\n      0x08\n        /* \"#utility.yul\":6218:6228   */\n      dup4\n        /* \"#utility.yul\":6214:6232   */\n      mul\n        /* \"#utility.yul\":6253:6350   */\n      tag_141\n        /* \"#utility.yul\":6283:6349   */\n      0xffffffffffffffffffffffffffffffffffffffffffffffffffffffffffffffff\n        /* \"#utility.yul\":6272:6281   */\n      dup3\n        /* \"#utility.yul\":6253:6350   */\n      tag_59\n      jump\t// in\n    tag_141:\n        /* \"#utility.yul\":6371:6410   */\n      tag_142\n        /* \"#utility.yul\":6401:6409   */\n      dup7\n        /* \"#utility.yul\":6390:6399   */\n      dup4\n        /* \"#utility.yul\":6371:6410   */\n      tag_59\n      jump\t// in\n    tag_142:\n        /* \"#utility.yul\":6359:6410   */\n      swap6\n      pop\n        /* \"#utility.yul\":6443:6447   */\n      dup1\n        /* \"#utility.yul\":6439:6448   */\n      not\n        /* \"#utility.yul\":6432:6437   */\n      dup5\n        /* \"#utility.yul\":6428:6449   */\n      and\n        /* \"#utility.yul\":6419:6449   */\n      swap4\n      pop\n        /* \"#utility.yul\":6492:6496   */\n      dup1\n        /* \"#utility.yul\":6482:6490   */\n      dup7\n        /* \"#utility.yul\":6478:6497   */\n      and\n        /* \"#utility.yul\":6471:6476   */\n      dup5\n        /* \"#utility.yul\":6468:6498   */\n      or\n        /* \"#utility.yul\":6458:6498   */\n      swap3\n      pop\n        /* \"#utility.yul\":6187:6504   */\n      pop\n      pop\n        /* \"#utility.yul\":6111:6504   */\n      swap4\n      swap3\n      pop\n      pop\n      pop\n      jump\t// out\n        /* \"#utility.yul\":6510:6570   */\n    tag_61:\n        /* \"#utility.yul\":6538:6541   */\n      0x00\n        /* \"#utility.yul\":6559:6564   */\n      dup2\n        /* \"#utility.yul\":6552:6564   */\n      swap1\n      pop\n        /* \"#utility.yul\":6510:6570   */\n      swap2\n      swap1\n      pop\n      jump\t// out\n        /* \"#utility.yul\":6576:6718   */\n    tag_62:\n        /* \"#utility.yul\":6626:6635   */\n      0x00\n        /* \"#utility.yul\":6659:6712   */\n      tag_145\n        /* \"#utility.yul\":6677:6711   */\n      tag_146\n        /* \"#utility.yul\":6686:6710   */\n      tag_147\n        /* \"#utility.yul\":6704:6709   */\n      dup5\n        /* \"#utility.yul\":6686:6710   */\n      tag_35\n      jump\t// in\n    tag_147:\n        /* \"#utility.yul\":6677:6711   */\n      tag_61\n      jump\t// in\n    tag_146:\n        /* \"#utility.yul\":6659:6712   */\n      tag_35\n      jump\t// in\n    tag_145:\n        /* \"#utility.yul\":6646:6712   */\n      swap1\n      pop\n        /* \"#utility.yul\":6576:6718   */\n      swap2\n      swap1\n      pop\n      jump\t// out\n        /* \"#utility.yul\":6724:6799   */\n    tag_63:\n        /* \"#utility.yul\":6767:6770   */\n      0x00\n        /* \"#utility.yul\":6788:6793   */\n      dup2\n        /* \"#utility.yul\":6781:6793   */\n      swap1\n      pop\n        /* \"#utility.yul\":6724:6799   */\n      swap2\n      swap1\n      pop\n      jump\t// out\n        /* \"#utility.yul\":6805:7074   */\n    tag_64:\n        /* \"#utility.yul\":6915:6954   */\n      tag_150\n        /* \"#utility.yul\":6946:6953   */\n      dup4\n        /* \"#utility.yul\":6915:6954   */\n      tag_62\n      jump\t// in\n    tag_150:\n        /* \"#utility.yul\":6976:7067   */\n      tag_151\n        /* \"#utility.yul\":7025:7066   */\n      tag_152\n        /* \"#utility.yul\":7049:7065   */\n      dup3\n        /* \"#utility.yul\":7025:7066   */\n      tag_63\n      jump\t// in\n    tag_152:\n        /* \"#utility.yul\":7017:7023   */\n      dup5\n        /* \"#utility.yul\":7010:7014   */\n      dup5\n        /* \"#utility.yul\":7004:7015   */\n      sload\n        /* \"#utility.yul\":6976:7067   */\n      tag_60\n      jump\t// in\n    tag_151:\n        /* \"#utility.yul\":6970:6974   */\n      dup3\n        /* \"#utility.yul\":6963:7068   */\n      sstore\n        /* \"#utility.yul\":6881:7074   */\n      pop\n        /* \"#utility.yul\":6805:7074   */\n      pop\n      pop\n      pop\n      jump\t// out\n        /* \"#utility.yul\":7080:7153   */\n    tag_65:\n        /* \"#utility.yul\":7125:7128   */\n      0x00\n        /* \"#utility.yul\":7080:7153   */\n      swap1\n      jump\t// out\n        /* \"#utility.yul\":7159:7348   */\n    tag_66:\n        /* \"#utility.yul\":7236:7268   */\n      tag_155\n      tag_65\n      jump\t// in\n    tag_155:\n        /* \"#utility.yul\":7277:7342   */\n      tag_156\n        /* \"#utility.yul\":7335:7341   */\n      dup2\n        /* \"#utility.yul\":7327:7333   */\n      dup5\n        /* \"#utility.yul\":7321:7325   */\n      dup5\n        /* \"#utility.yul\":7277:7342   */\n      tag_64\n      jump\t// in\n    tag_156:\n        /* \"#utility.yul\":7212:7348   */\n      pop\n        /* \"#utility.yul\":7159:7348   */\n      pop\n      pop\n      jump\t// out\n        /* \"#utility.yul\":7354:7540   */\n    tag_67:\n        /* \"#utility.yul\":7414:7534   */\n    tag_158:\n        /* \"#utility.yul\":7431:7434   */\n      dup2\n        /* \"#utility.yul\":7424:7429   */\n      dup2\n        /* \"#utility.yul\":7421:7435   */\n      lt\n        /* \"#utility.yul\":7414:7534   */\n      iszero\n      tag_160\n      jumpi\n        /* \"#utility.yul\":7485:7524   */\n      tag_161\n        /* \"#utility.yul\":7522:7523   */\n      0x00\n        /* \"#utility.yul\":7515:7520   */\n      dup3\n        /* \"#utility.yul\":7485:7524   */\n      tag_66\n      jump\t// in\n    tag_161:\n        /* \"#utility.yul\":7458:7459   */\n      0x01\n        /* \"#utility.yul\":7451:7456   */\n      dup2\n        /* \"#utility.yul\":7447:7460   */\n      add\n        /* \"#utility.yul\":7438:7460   */\n      swap1\n      pop\n        /* \"#utility.yul\":7414:7534   */\n      jump(tag_158)\n    tag_160:\n        /* \"#utility.yul\":7354:7540   */\n      pop\n      pop\n      jump\t// out\n        /* \"#utility.yul\":7546:8089   */\n    tag_68:\n        /* \"#utility.yul\":7647:7649   */\n      0x1f\n        /* \"#utility.yul\":7642:7645   */\n      dup3\n        /* \"#utility.yul\":7639:7650   */\n      gt\n        /* \"#utility.yul\":7636:8082   */\n      iszero\n      tag_163\n      jumpi\n        /* \"#utility.yul\":7681:7719   */\n      tag_164\n        /* \"#utility.yul\":7713:7718   */\n      dup2\n        /* \"#utility.yul\":7681:7719   */\n      tag_57\n      jump\t// in\n    tag_164:\n        /* \"#utility.yul\":7765:7794   */\n      tag_165\n        /* \"#utility.yul\":7783:7793   */\n      dup5\n        /* \"#utility.yul\":7765:7794   */\n      tag_58\n      jump\t// in\n    tag_165:\n        /* \"#utility.yul\":7755:7763   */\n      dup2\n        /* \"#utility.yul\":7751:7795   */\n      add\n        /* \"#utility.yul\":7948:7950   */\n      0x20\n        /* \"#utility.yul\":7936:7946   */\n      dup6\n        /* \"#utility.yul\":7933:7951   */\n      lt\n        /* \"#utility.yul\":7930:7979   */\n      iszero\n      tag_166\n      jumpi\n        /* \"#utility.yul\":7969:7977   */\n      dup2\n        /* \"#utility.yul\":7954:7977   */\n      swap1\n      pop\n        /* \"#utility.yul\":7930:7979   */\n    tag_166:\n        /* \"#utility.yul\":7992:8072   */\n      tag_167\n        /* \"#utility.yul\":8048:8070   */\n      tag_168\n        /* \"#utility.yul\":8066:8069   */\n      dup6\n        /* \"#utility.yul\":8048:8070   */\n      tag_58\n      jump\t// in\n    tag_168:\n        /* \"#utility.yul\":8038:8046   */\n      dup4\n        /* \"#utility.yul\":8034:8071   */\n      add\n        /* \"#utility.yul\":8021:8032   */\n      dup3\n        /* \"#utility.yul\":7992:8072   */\n      tag_67\n      jump\t// in\n    tag_167:\n        /* \"#utility.yul\":7651:8082   */\n      pop\n      pop\n        /* \"#utility.yul\":7636:8082   */\n    tag_163:\n        /* \"#utility.yul\":7546:8089   */\n      pop\n      pop\n      pop\n      jump\t// out\n        /* \"#utility.yul\":8095:8212   */\n    tag_69:\n        /* \"#utility.yul\":8149:8157   */\n      0x00\n        /* \"#utility.yul\":8199:8204   */\n      dup3\n        /* \"#utility.yul\":8193:8197   */\n      dup3\n        /* \"#utility.yul\":8189:8205   */\n      shr\n        /* \"#utility.yul\":8168:8205   */\n      swap1\n      pop\n        /* \"#utility.yul\":8095:8212   */\n      swap3\n      swap2\n      pop\n      pop\n      jump\t// out\n        /* \"#utility.yul\":8218:8387   */\n    tag_70:\n        /* \"#utility.yul\":8262:8268   */\n      0x00\n        /* \"#utility.yul\":8295:8346   */\n      tag_171\n        /* \"#utility.yul\":8343:8344   */\n      0x00\n        /* \"#utility.yul\":8339:8345   */\n      not\n        /* \"#utility.yul\":8331:8336   */\n      dup5\n        /* \"#utility.yul\":8328:8329   */\n      0x08\n        /* \"#utility.yul\":8324:8337   */\n      mul\n        /* \"#utility.yul\":8295:8346   */\n      tag_69\n      jump\t// in\n    tag_171:\n        /* \"#utility.yul\":8291:8347   */\n      not\n        /* \"#utility.yul\":8376:8380   */\n      dup1\n        /* \"#utility.yul\":8370:8374   */\n      dup4\n        /* \"#utility.yul\":8366:8381   */\n      and\n        /* \"#utility.yul\":8356:8381   */\n      swap2\n      pop\n        /* \"#utility.yul\":8269:8387   */\n      pop\n        /* \"#utility.yul\":8218:8387   */\n      swap3\n      swap2\n      pop\n      pop\n      jump\t// out\n        /* \"#utility.yul\":8392:8687   */\n    tag_71:\n        /* \"#utility.yul\":8468:8472   */\n      0x00\n        /* \"#utility.yul\":8614:8643   */\n      tag_173\n        /* \"#utility.yul\":8639:8642   */\n      dup4\n        /* \"#utility.yul\":8633:8637   */\n      dup4\n        /* \"#utility.yul\":8614:8643   */\n      tag_70\n      jump\t// in\n    tag_173:\n        /* \"#utility.yul\":8606:8643   */\n      swap2\n      pop\n        /* \"#utility.yul\":8676:8679   */\n      dup3\n        /* \"#utility.yul\":8673:8674   */\n      0x02\n        /* \"#utility.yul\":8669:8680   */\n      mul\n        /* \"#utility.yul\":8663:8667   */\n      dup3\n        /* \"#utility.yul\":8660:8681   */\n      or\n        /* \"#utility.yul\":8652:8681   */\n      swap1\n      pop\n        /* \"#utility.yul\":8392:8687   */\n      swap3\n      swap2\n      pop\n      pop\n      jump\t// out\n        /* \"#utility.yul\":8692:10087   */\n    tag_26:\n        /* \"#utility.yul\":8809:8846   */\n      tag_175\n        /* \"#utility.yul\":8842:8845   */\n      dup3\n        /* \"#utility.yul\":8809:8846   */\n      tag_50\n      jump\t// in\n    tag_175:\n        /* \"#utility.yul\":8911:8929   */\n      0xffffffffffffffff\n        /* \"#utility.yul\":8903:8909   */\n      dup2\n        /* \"#utility.yul\":8900:8930   */\n      gt\n        /* \"#utility.yul\":8897:8953   */\n      iszero\n      tag_176\n      jumpi\n        /* \"#utility.yul\":8933:8951   */\n      tag_177\n      tag_43\n      jump\t// in\n    tag_177:\n        /* \"#utility.yul\":8897:8953   */\n    tag_176:\n        /* \"#utility.yul\":8977:9015   */\n      tag_178\n        /* \"#utility.yul\":9009:9013   */\n      dup3\n        /* \"#utility.yul\":9003:9014   */\n      sload\n        /* \"#utility.yul\":8977:9015   */\n      tag_29\n      jump\t// in\n    tag_178:\n        /* \"#utility.yul\":9062:9129   */\n      tag_179\n        /* \"#utility.yul\":9122:9128   */\n      dup3\n        /* \"#utility.yul\":9114:9120   */\n      dup3\n        /* \"#utility.yul\":9108:9112   */\n      dup6\n        /* \"#utility.yul\":9062:9129   */\n      tag_68\n      jump\t// in\n    tag_179:\n        /* \"#utility.yul\":9156:9157   */\n      0x00\n        /* \"#utility.yul\":9180:9184   */\n      0x20\n        /* \"#utility.yul\":9167:9184   */\n      swap1\n      pop\n        /* \"#utility.yul\":9212:9214   */\n      0x1f\n        /* \"#utility.yul\":9204:9210   */\n      dup4\n        /* \"#utility.yul\":9201:9215   */\n      gt\n        /* \"#utility.yul\":9229:9230   */\n      0x01\n        /* \"#utility.yul\":9224:9842   */\n      dup2\n      eq\n      tag_181\n      jumpi\n        /* \"#utility.yul\":9886:9887   */\n      0x00\n        /* \"#utility.yul\":9903:9909   */\n      dup5\n        /* \"#utility.yul\":9900:9977   */\n      iszero\n      tag_182\n      jumpi\n        /* \"#utility.yul\":9952:9961   */\n      dup3\n        /* \"#utility.yul\":9947:9950   */\n      dup8\n        /* \"#utility.yul\":9943:9962   */\n      add\n        /* \"#utility.yul\":9937:9963   */\n      mload\n        /* \"#utility.yul\":9928:9963   */\n      swap1\n      pop\n        /* \"#utility.yul\":9900:9977   */\n    tag_182:\n        /* \"#utility.yul\":10003:10070   */\n      tag_183\n        /* \"#utility.yul\":10063:10069   */\n      dup6\n        /* \"#utility.yul\":10056:10061   */\n      dup3\n        /* \"#utility.yul\":10003:10070   */\n      tag_71\n      jump\t// in\n    tag_183:\n        /* \"#utility.yul\":9997:10001   */\n      dup7\n        /* \"#utility.yul\":9990:10071   */\n      sstore\n        /* \"#utility.yul\":9859:10081   */\n      pop\n        /* \"#utility.yul\":9194:10081   */\n      jump(tag_180)\n        /* \"#utility.yul\":9224:9842   */\n    tag_181:\n        /* \"#utility.yul\":9276:9280   */\n      0x1f\n        /* \"#utility.yul\":9272:9281   */\n      not\n        /* \"#utility.yul\":9264:9270   */\n      dup5\n        /* \"#utility.yul\":9260:9282   */\n      and\n        /* \"#utility.yul\":9310:9347   */\n      tag_184\n        /* \"#utility.yul\":9342:9346   */\n      dup7\n        /* \"#utility.yul\":9310:9347   */\n      tag_57\n      jump\t// in\n    tag_184:\n        /* \"#utility.yul\":9369:9370   */\n      0x00\n        /* \"#utility.yul\":9383:9591   */\n    tag_185:\n        /* \"#utility.yul\":9397:9404   */\n      dup3\n        /* \"#utility.yul\":9394:9395   */\n      dup2\n        /* \"#utility.yul\":9391:9405   */\n      lt\n        /* \"#utility.yul\":9383:9591   */\n      iszero\n      tag_187\n      jumpi\n        /* \"#utility.yul\":9476:9485   */\n      dup5\n        /* \"#utility.yul\":9471:9474   */\n      dup10\n        /* \"#utility.yul\":9467:9486   */\n      add\n        /* \"#utility.yul\":9461:9487   */\n      mload\n        /* \"#utility.yul\":9453:9459   */\n      dup3\n        /* \"#utility.yul\":9446:9488   */\n      sstore\n        /* \"#utility.yul\":9527:9528   */\n      0x01\n        /* \"#utility.yul\":9519:9525   */\n      dup3\n        /* \"#utility.yul\":9515:9529   */\n      add\n        /* \"#utility.yul\":9505:9529   */\n      swap2\n      pop\n        /* \"#utility.yul\":9574:9576   */\n      0x20\n        /* \"#utility.yul\":9563:9572   */\n      dup6\n        /* \"#utility.yul\":9559:9577   */\n      add\n        /* \"#utility.yul\":9546:9577   */\n      swap5\n      pop\n        /* \"#utility.yul\":9420:9424   */\n      0x20\n        /* \"#utility.yul\":9417:9418   */\n      dup2\n        /* \"#utility.yul\":9413:9425   */\n      add\n        /* \"#utility.yul\":9408:9425   */\n      swap1\n      pop\n        /* \"#utility.yul\":9383:9591   */\n      jump(tag_185)\n    tag_187:\n        /* \"#utility.yul\":9619:9625   */\n      dup7\n        /* \"#utility.yul\":9610:9617   */\n      dup4\n        /* \"#utility.yul\":9607:9626   */\n      lt\n        /* \"#utility.yul\":9604:9783   */\n      iszero\n      tag_188\n      jumpi\n        /* \"#utility.yul\":9677:9686   */\n      dup5\n        /* \"#utility.yul\":9672:9675   */\n      dup10\n        /* \"#utility.yul\":9668:9687   */\n      add\n        /* \"#utility.yul\":9662:9688   */\n      mload\n        /* \"#utility.yul\":9720:9768   */\n      tag_189\n        /* \"#utility.yul\":9762:9766   */\n      0x1f\n        /* \"#utility.yul\":9754:9760   */\n      dup10\n        /* \"#utility.yul\":9750:9767   */\n      and\n        /* \"#utility.yul\":9739:9748   */\n      dup3\n        /* \"#utility.yul\":9720:9768   */\n      tag_70\n      jump\t// in\n    tag_189:\n        /* \"#utility.yul\":9712:9718   */\n      dup4\n        /* \"#utility.yul\":9705:9769   */\n      sstore\n        /* \"#utility.yul\":9627:9783   */\n      pop\n        /* \"#utility.yul\":9604:9783   */\n    tag_188:\n        /* \"#utility.yul\":9829:9830   */\n      0x01\n        /* \"#utility.yul\":9825:9826   */\n      0x02\n        /* \"#utility.yul\":9817:9823   */\n      dup9\n        /* \"#utility.yul\":9813:9827   */\n      mul\n        /* \"#utility.yul\":9809:9831   */\n      add\n        /* \"#utility.yul\":9803:9807   */\n      dup9\n        /* \"#utility.yul\":9796:9832   */\n      sstore\n        /* \"#utility.yul\":9231:9842   */\n      pop\n      pop\n      pop\n        /* \"#utility.yul\":9194:10081   */\n    tag_180:\n      pop\n        /* \"#utility.yul\":8784:10087   */\n      pop\n      pop\n      pop\n        /* \"#utility.yul\":8692:10087   */\n      pop\n      pop\n      jump\t// out\n\n    auxdata: 0xa2646970667358221220b9cc16d7c70d5bd5cd2f51d8befb675a6a45d78dc7e3667b59c4cb91b419a0c764736f6c634300081a0033\n}\n",
				"bytecode": {
					"linkReferences": {},
					"object": "608060405260405180602001604052805f8152505f90816100209190610270565b505f600155348015610030575f80fd5b5061033f565b5f81519050919050565b7f4e487b71000000000000000000000000000000000000000000000000000000005f52604160045260245ffd5b7f4e487b71000000000000000000000000000000000000000000000000000000005f52602260045260245ffd5b5f60028204905060018216806100b157607f821691505b6020821081036100c4576100c361006d565b5b50919050565b5f819050815f5260205f209050919050565b5f6020601f8301049050919050565b5f82821b905092915050565b5f600883026101267fffffffffffffffffffffffffffffffffffffffffffffffffffffffffffffffff826100eb565b61013086836100eb565b95508019841693508086168417925050509392505050565b5f819050919050565b5f819050919050565b5f61017461016f61016a84610148565b610151565b610148565b9050919050565b5f819050919050565b61018d8361015a565b6101a16101998261017b565b8484546100f7565b825550505050565b5f90565b6101b56101a9565b6101c0818484610184565b505050565b5b818110156101e3576101d85f826101ad565b6001810190506101c6565b5050565b601f821115610228576101f9816100ca565b610202846100dc565b81016020851015610211578190505b61022561021d856100dc565b8301826101c5565b50505b505050565b5f82821c905092915050565b5f6102485f198460080261022d565b1980831691505092915050565b5f6102608383610239565b9150826002028217905092915050565b61027982610036565b67ffffffffffffffff81111561029257610291610040565b5b61029c825461009a565b6102a78282856101e7565b5f60209050601f8311600181146102d8575f84156102c6578287015190505b6102d08582610255565b865550610337565b601f1984166102e6866100ca565b5f5b8281101561030d578489015182556001820191506020850194506020810190506102e8565b8683101561032a5784890151610326601f891682610239565b8355505b6001600288020188555050505b505050505050565b61070f8061034c5f395ff3fe608060405234801561000f575f80fd5b506004361061004a575f3560e01c80632a58ed801461004e5780634e8632711461006c578063b55003fa14610088578063cb4685a6146100a6575b5f80fd5b6100566100c2565b604051610063919061018e565b60405180910390f35b610086600480360381019061008191906102f4565b6100cb565b005b6100906100dd565b60405161009d919061039b565b60405180910390f35b6100c060048036038101906100bb91906103e5565b61016c565b005b5f600154905090565b805f90816100d9919061060a565b5050565b60605f80546100eb9061043d565b80601f01602080910402602001604051908101604052809291908181526020018280546101179061043d565b80156101625780601f1061013957610100808354040283529160200191610162565b820191905f5260205f20905b81548152906001019060200180831161014557829003601f168201915b5050505050905090565b8060018190555050565b5f819050919050565b61018881610176565b82525050565b5f6020820190506101a15f83018461017f565b92915050565b5f604051905090565b5f80fd5b5f80fd5b5f80fd5b5f80fd5b5f601f19601f8301169050919050565b7f4e487b71000000000000000000000000000000000000000000000000000000005f52604160045260245ffd5b610206826101c0565b810181811067ffffffffffffffff82111715610225576102246101d0565b5b80604052505050565b5f6102376101a7565b905061024382826101fd565b919050565b5f67ffffffffffffffff821115610262576102616101d0565b5b61026b826101c0565b9050602081019050919050565b828183375f83830152505050565b5f61029861029384610248565b61022e565b9050828152602081018484840111156102b4576102b36101bc565b5b6102bf848285610278565b509392505050565b5f82601f8301126102db576102da6101b8565b5b81356102eb848260208601610286565b91505092915050565b5f60208284031215610309576103086101b0565b5b5f82013567ffffffffffffffff811115610326576103256101b4565b5b610332848285016102c7565b91505092915050565b5f81519050919050565b5f82825260208201905092915050565b8281835e5f83830152505050565b5f61036d8261033b565b6103778185610345565b9350610387818560208601610355565b610390816101c0565b840191505092915050565b5f6020820190508181035f8301526103b38184610363565b905092915050565b6103c481610176565b81146103ce575f80fd5b50565b5f813590506103df816103bb565b92915050565b5f602082840312156103fa576103f96101b0565b5b5f610407848285016103d1565b91505092915050565b7f4e487b71000000000000000000000000000000000000000000000000000000005f52602260045260245ffd5b5f600282049050600182168061045457607f821691505b60208210810361046757610466610410565b5b50919050565b5f819050815f5260205f209050919050565b5f6020601f8301049050919050565b5f82821b905092915050565b5f600883026104c97fffffffffffffffffffffffffffffffffffffffffffffffffffffffffffffffff8261048e565b6104d3868361048e565b95508019841693508086168417925050509392505050565b5f819050919050565b5f61050e61050961050484610176565b6104eb565b610176565b9050919050565b5f819050919050565b610527836104f4565b61053b61053382610515565b84845461049a565b825550505050565b5f90565b61054f610543565b61055a81848461051e565b505050565b5b8181101561057d576105725f82610547565b600181019050610560565b5050565b601f8211156105c2576105938161046d565b61059c8461047f565b810160208510156105ab578190505b6105bf6105b78561047f565b83018261055f565b50505b505050565b5f82821c905092915050565b5f6105e25f19846008026105c7565b1980831691505092915050565b5f6105fa83836105d3565b9150826002028217905092915050565b6106138261033b565b67ffffffffffffffff81111561062c5761062b6101d0565b5b610636825461043d565b610641828285610581565b5f60209050601f831160018114610672575f8415610660578287015190505b61066a85826105ef565b8655506106d1565b601f1984166106808661046d565b5f5b828110156106a757848901518255600182019150602085019450602081019050610682565b868310156106c457848901516106c0601f8916826105d3565b8355505b6001600288020188555050505b50505050505056fea2646970667358221220b9cc16d7c70d5bd5cd2f51d8befb675a6a45d78dc7e3667b59c4cb91b419a0c764736f6c634300081a0033",
					"opcodes": "PUSH1 0x80 PUSH1 0x40 MSTORE PUSH1 0x40 MLOAD DUP1 PUSH1 0x20 ADD PUSH1 0x40 MSTORE DUP1 PUSH0 DUP2 MSTORE POP PUSH0 SWAP1 DUP2 PUSH2 0x20 SWAP2 SWAP1 PUSH2 0x270 JUMP JUMPDEST POP PUSH0 PUSH1 0x1 SSTORE CALLVALUE DUP1 ISZERO PUSH2 0x30 JUMPI PUSH0 DUP1 REVERT JUMPDEST POP PUSH2 0x33F JUMP JUMPDEST PUSH0 DUP2 MLOAD SWAP1 POP SWAP2 SWAP1 POP JUMP JUMPDEST PUSH32 0x4E487B7100000000000000000000000000000000000000000000000000000000 PUSH0 MSTORE PUSH1 0x41 PUSH1 0x4 MSTORE PUSH1 0x24 PUSH0 REVERT JUMPDEST PUSH32 0x4E487B7100000000000000000000000000000000000000000000000000000000 PUSH0 MSTORE PUSH1 0x22 PUSH1 0x4 MSTORE PUSH1 0x24 PUSH0 REVERT JUMPDEST PUSH0 PUSH1 0x2 DUP3 DIV SWAP1 POP PUSH1 0x1 DUP3 AND DUP1 PUSH2 0xB1 JUMPI PUSH1 0x7F DUP3 AND SWAP2 POP JUMPDEST PUSH1 0x20 DUP3 LT DUP2 SUB PUSH2 0xC4 JUMPI PUSH2 0xC3 PUSH2 0x6D JUMP JUMPDEST JUMPDEST POP SWAP2 SWAP1 POP JUMP JUMPDEST PUSH0 DUP2 SWAP1 POP DUP2 PUSH0 MSTORE PUSH1 0x20 PUSH0 KECCAK256 SWAP1 POP SWAP2 SWAP1 POP JUMP JUMPDEST PUSH0 PUSH1 0x20 PUSH1 0x1F DUP4 ADD DIV SWAP1 POP SWAP2 SWAP1 POP JUMP JUMPDEST PUSH0 DUP3 DUP3 SHL SWAP1 POP SWAP3 SWAP2 POP POP JUMP JUMPDEST PUSH0 PUSH1 0x8 DUP4 MUL PUSH2 0x126 PUSH32 0xFFFFFFFFFFFFFFFFFFFFFFFFFFFFFFFFFFFFFFFFFFFFFFFFFFFFFFFFFFFFFFFF DUP3 PUSH2 0xEB JUMP JUMPDEST PUSH2 0x130 DUP7 DUP4 PUSH2 0xEB JUMP JUMPDEST SWAP6 POP DUP1 NOT DUP5 AND SWAP4 POP DUP1 DUP7 AND DUP5 OR SWAP3 POP POP POP SWAP4 SWAP3 POP POP POP JUMP JUMPDEST PUSH0 DUP2 SWAP1 POP SWAP2 SWAP1 POP JUMP JUMPDEST PUSH0 DUP2 SWAP1 POP SWAP2 SWAP1 POP JUMP JUMPDEST PUSH0 PUSH2 0x174 PUSH2 0x16F PUSH2 0x16A DUP5 PUSH2 0x148 JUMP JUMPDEST PUSH2 0x151 JUMP JUMPDEST PUSH2 0x148 JUMP JUMPDEST SWAP1 POP SWAP2 SWAP1 POP JUMP JUMPDEST PUSH0 DUP2 SWAP1 POP SWAP2 SWAP1 POP JUMP JUMPDEST PUSH2 0x18D DUP4 PUSH2 0x15A JUMP JUMPDEST PUSH2 0x1A1 PUSH2 0x199 DUP3 PUSH2 0x17B JUMP JUMPDEST DUP5 DUP5 SLOAD PUSH2 0xF7 JUMP JUMPDEST DUP3 SSTORE POP POP POP POP JUMP JUMPDEST PUSH0 SWAP1 JUMP JUMPDEST PUSH2 0x1B5 PUSH2 0x1A9 JUMP JUMPDEST PUSH2 0x1C0 DUP2 DUP5 DUP5 PUSH2 0x184 JUMP JUMPDEST POP POP POP JUMP JUMPDEST JUMPDEST DUP2 DUP2 LT ISZERO PUSH2 0x1E3 JUMPI PUSH2 0x1D8 PUSH0 DUP3 PUSH2 0x1AD JUMP JUMPDEST PUSH1 0x1 DUP2 ADD SWAP1 POP PUSH2 0x1C6 JUMP JUMPDEST POP POP JUMP JUMPDEST PUSH1 0x1F DUP3 GT ISZERO PUSH2 0x228 JUMPI PUSH2 0x1F9 DUP2 PUSH2 0xCA JUMP JUMPDEST PUSH2 0x202 DUP5 PUSH2 0xDC JUMP JUMPDEST DUP2 ADD PUSH1 0x20 DUP6 LT ISZERO PUSH2 0x211 JUMPI DUP2 SWAP1 POP JUMPDEST PUSH2 0x225 PUSH2 0x21D DUP6 PUSH2 0xDC JUMP JUMPDEST DUP4 ADD DUP3 PUSH2 0x1C5 JUMP JUMPDEST POP POP JUMPDEST POP POP POP JUMP JUMPDEST PUSH0 DUP3 DUP3 SHR SWAP1 POP SWAP3 SWAP2 POP POP JUMP JUMPDEST PUSH0 PUSH2 0x248 PUSH0 NOT DUP5 PUSH1 0x8 MUL PUSH2 0x22D JUMP JUMPDEST NOT DUP1 DUP4 AND SWAP2 POP POP SWAP3 SWAP2 POP POP JUMP JUMPDEST PUSH0 PUSH2 0x260 DUP4 DUP4 PUSH2 0x239 JUMP JUMPDEST SWAP2 POP DUP3 PUSH1 0x2 MUL DUP3 OR SWAP1 POP SWAP3 SWAP2 POP POP JUMP JUMPDEST PUSH2 0x279 DUP3 PUSH2 0x36 JUMP JUMPDEST PUSH8 0xFFFFFFFFFFFFFFFF DUP2 GT ISZERO PUSH2 0x292 JUMPI PUSH2 0x291 PUSH2 0x40 JUMP JUMPDEST JUMPDEST PUSH2 0x29C DUP3 SLOAD PUSH2 0x9A JUMP JUMPDEST PUSH2 0x2A7 DUP3 DUP3 DUP6 PUSH2 0x1E7 JUMP JUMPDEST PUSH0 PUSH1 0x20 SWAP1 POP PUSH1 0x1F DUP4 GT PUSH1 0x1 DUP2 EQ PUSH2 0x2D8 JUMPI PUSH0 DUP5 ISZERO PUSH2 0x2C6 JUMPI DUP3 DUP8 ADD MLOAD SWAP1 POP JUMPDEST PUSH2 0x2D0 DUP6 DUP3 PUSH2 0x255 JUMP JUMPDEST DUP7 SSTORE POP PUSH2 0x337 JUMP JUMPDEST PUSH1 0x1F NOT DUP5 AND PUSH2 0x2E6 DUP7 PUSH2 0xCA JUMP JUMPDEST PUSH0 JUMPDEST DUP3 DUP2 LT ISZERO PUSH2 0x30D JUMPI DUP5 DUP10 ADD MLOAD DUP3 SSTORE PUSH1 0x1 DUP3 ADD SWAP2 POP PUSH1 0x20 DUP6 ADD SWAP5 POP PUSH1 0x20 DUP2 ADD SWAP1 POP PUSH2 0x2E8 JUMP JUMPDEST DUP7 DUP4 LT ISZERO PUSH2 0x32A JUMPI DUP5 DUP10 ADD MLOAD PUSH2 0x326 PUSH1 0x1F DUP10 AND DUP3 PUSH2 0x239 JUMP JUMPDEST DUP4 SSTORE POP JUMPDEST PUSH1 0x1 PUSH1 0x2 DUP9 MUL ADD DUP9 SSTORE POP POP POP JUMPDEST POP POP POP POP POP POP JUMP JUMPDEST PUSH2 0x70F DUP1 PUSH2 0x34C PUSH0 CODECOPY PUSH0 RETURN INVALID PUSH1 0x80 PUSH1 0x40 MSTORE CALLVALUE DUP1 ISZERO PUSH2 0xF JUMPI PUSH0 DUP1 REVERT JUMPDEST POP PUSH1 0x4 CALLDATASIZE LT PUSH2 0x4A JUMPI PUSH0 CALLDATALOAD PUSH1 0xE0 SHR DUP1 PUSH4 0x2A58ED80 EQ PUSH2 0x4E JUMPI DUP1 PUSH4 0x4E863271 EQ PUSH2 0x6C JUMPI DUP1 PUSH4 0xB55003FA EQ PUSH2 0x88 JUMPI DUP1 PUSH4 0xCB4685A6 EQ PUSH2 0xA6 JUMPI JUMPDEST PUSH0 DUP1 REVERT JUMPDEST PUSH2 0x56 PUSH2 0xC2 JUMP JUMPDEST PUSH1 0x40 MLOAD PUSH2 0x63 SWAP2 SWAP1 PUSH2 0x18E JUMP JUMPDEST PUSH1 0x40 MLOAD DUP1 SWAP2 SUB SWAP1 RETURN JUMPDEST PUSH2 0x86 PUSH1 0x4 DUP1 CALLDATASIZE SUB DUP2 ADD SWAP1 PUSH2 0x81 SWAP2 SWAP1 PUSH2 0x2F4 JUMP JUMPDEST PUSH2 0xCB JUMP JUMPDEST STOP JUMPDEST PUSH2 0x90 PUSH2 0xDD JUMP JUMPDEST PUSH1 0x40 MLOAD PUSH2 0x9D SWAP2 SWAP1 PUSH2 0x39B JUMP JUMPDEST PUSH1 0x40 MLOAD DUP1 SWAP2 SUB SWAP1 RETURN JUMPDEST PUSH2 0xC0 PUSH1 0x4 DUP1 CALLDATASIZE SUB DUP2 ADD SWAP1 PUSH2 0xBB SWAP2 SWAP1 PUSH2 0x3E5 JUMP JUMPDEST PUSH2 0x16C JUMP JUMPDEST STOP JUMPDEST PUSH0 PUSH1 0x1 SLOAD SWAP1 POP SWAP1 JUMP JUMPDEST DUP1 PUSH0 SWAP1 DUP2 PUSH2 0xD9 SWAP2 SWAP1 PUSH2 0x60A JUMP JUMPDEST POP POP JUMP JUMPDEST PUSH1 0x60 PUSH0 DUP1 SLOAD PUSH2 0xEB SWAP1 PUSH2 0x43D JUMP JUMPDEST DUP1 PUSH1 0x1F ADD PUSH1 0x20 DUP1 SWAP2 DIV MUL PUSH1 0x20 ADD PUSH1 0x40 MLOAD SWAP1 DUP2 ADD PUSH1 0x40 MSTORE DUP1 SWAP3 SWAP2 SWAP1 DUP2 DUP2 MSTORE PUSH1 0x20 ADD DUP3 DUP1 SLOAD PUSH2 0x117 SWAP1 PUSH2 0x43D JUMP JUMPDEST DUP1 ISZERO PUSH2 0x162 JUMPI DUP1 PUSH1 0x1F LT PUSH2 0x139 JUMPI PUSH2 0x100 DUP1 DUP4 SLOAD DIV MUL DUP4 MSTORE SWAP2 PUSH1 0x20 ADD SWAP2 PUSH2 0x162 JUMP JUMPDEST DUP3 ADD SWAP2 SWAP1 PUSH0 MSTORE PUSH1 0x20 PUSH0 KECCAK256 SWAP1 JUMPDEST DUP2 SLOAD DUP2 MSTORE SWAP1 PUSH1 0x1 ADD SWAP1 PUSH1 0x20 ADD DUP1 DUP4 GT PUSH2 0x145 JUMPI DUP3 SWAP1 SUB PUSH1 0x1F AND DUP3 ADD SWAP2 JUMPDEST POP POP POP POP POP SWAP1 POP SWAP1 JUMP JUMPDEST DUP1 PUSH1 0x1 DUP2 SWAP1 SSTORE POP POP JUMP JUMPDEST PUSH0 DUP2 SWAP1 POP SWAP2 SWAP1 POP JUMP JUMPDEST PUSH2 0x188 DUP2 PUSH2 0x176 JUMP JUMPDEST DUP3 MSTORE POP POP JUMP JUMPDEST PUSH0 PUSH1 0x20 DUP3 ADD SWAP1 POP PUSH2 0x1A1 PUSH0 DUP4 ADD DUP5 PUSH2 0x17F JUMP JUMPDEST SWAP3 SWAP2 POP POP JUMP JUMPDEST PUSH0 PUSH1 0x40 MLOAD SWAP1 POP SWAP1 JUMP JUMPDEST PUSH0 DUP1 REVERT JUMPDEST PUSH0 DUP1 REVERT JUMPDEST PUSH0 DUP1 REVERT JUMPDEST PUSH0 DUP1 REVERT JUMPDEST PUSH0 PUSH1 0x1F NOT PUSH1 0x1F DUP4 ADD AND SWAP1 POP SWAP2 SWAP1 POP JUMP JUMPDEST PUSH32 0x4E487B7100000000000000000000000000000000000000000000000000000000 PUSH0 MSTORE PUSH1 0x41 PUSH1 0x4 MSTORE PUSH1 0x24 PUSH0 REVERT JUMPDEST PUSH2 0x206 DUP3 PUSH2 0x1C0 JUMP JUMPDEST DUP2 ADD DUP2 DUP2 LT PUSH8 0xFFFFFFFFFFFFFFFF DUP3 GT OR ISZERO PUSH2 0x225 JUMPI PUSH2 0x224 PUSH2 0x1D0 JUMP JUMPDEST JUMPDEST DUP1 PUSH1 0x40 MSTORE POP POP POP JUMP JUMPDEST PUSH0 PUSH2 0x237 PUSH2 0x1A7 JUMP JUMPDEST SWAP1 POP PUSH2 0x243 DUP3 DUP3 PUSH2 0x1FD JUMP JUMPDEST SWAP2 SWAP1 POP JUMP JUMPDEST PUSH0 PUSH8 0xFFFFFFFFFFFFFFFF DUP3 GT ISZERO PUSH2 0x262 JUMPI PUSH2 0x261 PUSH2 0x1D0 JUMP JUMPDEST JUMPDEST PUSH2 0x26B DUP3 PUSH2 0x1C0 JUMP JUMPDEST SWAP1 POP PUSH1 0x20 DUP2 ADD SWAP1 POP SWAP2 SWAP1 POP JUMP JUMPDEST DUP3 DUP2 DUP4 CALLDATACOPY PUSH0 DUP4 DUP4 ADD MSTORE POP POP POP JUMP JUMPDEST PUSH0 PUSH2 0x298 PUSH2 0x293 DUP5 PUSH2 0x248 JUMP JUMPDEST PUSH2 0x22E JUMP JUMPDEST SWAP1 POP DUP3 DUP2 MSTORE PUSH1 0x20 DUP2 ADD DUP5 DUP5 DUP5 ADD GT ISZERO PUSH2 0x2B4 JUMPI PUSH2 0x2B3 PUSH2 0x1BC JUMP JUMPDEST JUMPDEST PUSH2 0x2BF DUP5 DUP3 DUP6 PUSH2 0x278 JUMP JUMPDEST POP SWAP4 SWAP3 POP POP POP JUMP JUMPDEST PUSH0 DUP3 PUSH1 0x1F DUP4 ADD SLT PUSH2 0x2DB JUMPI PUSH2 0x2DA PUSH2 0x1B8 JUMP JUMPDEST JUMPDEST DUP2 CALLDATALOAD PUSH2 0x2EB DUP5 DUP3 PUSH1 0x20 DUP7 ADD PUSH2 0x286 JUMP JUMPDEST SWAP2 POP POP SWAP3 SWAP2 POP POP JUMP JUMPDEST PUSH0 PUSH1 0x20 DUP3 DUP5 SUB SLT ISZERO PUSH2 0x309 JUMPI PUSH2 0x308 PUSH2 0x1B0 JUMP JUMPDEST JUMPDEST PUSH0 DUP3 ADD CALLDATALOAD PUSH8 0xFFFFFFFFFFFFFFFF DUP2 GT ISZERO PUSH2 0x326 JUMPI PUSH2 0x325 PUSH2 0x1B4 JUMP JUMPDEST JUMPDEST PUSH2 0x332 DUP5 DUP3 DUP6 ADD PUSH2 0x2C7 JUMP JUMPDEST SWAP2 POP POP SWAP3 SWAP2 POP POP JUMP JUMPDEST PUSH0 DUP2 MLOAD SWAP1 POP SWAP2 SWAP1 POP JUMP JUMPDEST PUSH0 DUP3 DUP3 MSTORE PUSH1 0x20 DUP3 ADD SWAP1 POP SWAP3 SWAP2 POP POP JUMP JUMPDEST DUP3 DUP2 DUP4 MCOPY PUSH0 DUP4 DUP4 ADD MSTORE POP POP POP JUMP JUMPDEST PUSH0 PUSH2 0x36D DUP3 PUSH2 0x33B JUMP JUMPDEST PUSH2 0x377 DUP2 DUP6 PUSH2 0x345 JUMP JUMPDEST SWAP4 POP PUSH2 0x387 DUP2 DUP6 PUSH1 0x20 DUP7 ADD PUSH2 0x355 JUMP JUMPDEST PUSH2 0x390 DUP2 PUSH2 0x1C0 JUMP JUMPDEST DUP5 ADD SWAP2 POP POP SWAP3 SWAP2 POP POP JUMP JUMPDEST PUSH0 PUSH1 0x20 DUP3 ADD SWAP1 POP DUP2 DUP2 SUB PUSH0 DUP4 ADD MSTORE PUSH2 0x3B3 DUP2 DUP5 PUSH2 0x363 JUMP JUMPDEST SWAP1 POP SWAP3 SWAP2 POP POP JUMP JUMPDEST PUSH2 0x3C4 DUP2 PUSH2 0x176 JUMP JUMPDEST DUP2 EQ PUSH2 0x3CE JUMPI PUSH0 DUP1 REVERT JUMPDEST POP JUMP JUMPDEST PUSH0 DUP2 CALLDATALOAD SWAP1 POP PUSH2 0x3DF DUP2 PUSH2 0x3BB JUMP JUMPDEST SWAP3 SWAP2 POP POP JUMP JUMPDEST PUSH0 PUSH1 0x20 DUP3 DUP5 SUB SLT ISZERO PUSH2 0x3FA JUMPI PUSH2 0x3F9 PUSH2 0x1B0 JUMP JUMPDEST JUMPDEST PUSH0 PUSH2 0x407 DUP5 DUP3 DUP6 ADD PUSH2 0x3D1 JUMP JUMPDEST SWAP2 POP POP SWAP3 SWAP2 POP POP JUMP JUMPDEST PUSH32 0x4E487B7100000000000000000000000000000000000000000000000000000000 PUSH0 MSTORE PUSH1 0x22 PUSH1 0x4 MSTORE PUSH1 0x24 PUSH0 REVERT JUMPDEST PUSH0 PUSH1 0x2 DUP3 DIV SWAP1 POP PUSH1 0x1 DUP3 AND DUP1 PUSH2 0x454 JUMPI PUSH1 0x7F DUP3 AND SWAP2 POP JUMPDEST PUSH1 0x20 DUP3 LT DUP2 SUB PUSH2 0x467 JUMPI PUSH2 0x466 PUSH2 0x410 JUMP JUMPDEST JUMPDEST POP SWAP2 SWAP1 POP JUMP JUMPDEST PUSH0 DUP2 SWAP1 POP DUP2 PUSH0 MSTORE PUSH1 0x20 PUSH0 KECCAK256 SWAP1 POP SWAP2 SWAP1 POP JUMP JUMPDEST PUSH0 PUSH1 0x20 PUSH1 0x1F DUP4 ADD DIV SWAP1 POP SWAP2 SWAP1 POP JUMP JUMPDEST PUSH0 DUP3 DUP3 SHL SWAP1 POP SWAP3 SWAP2 POP POP JUMP JUMPDEST PUSH0 PUSH1 0x8 DUP4 MUL PUSH2 0x4C9 PUSH32 0xFFFFFFFFFFFFFFFFFFFFFFFFFFFFFFFFFFFFFFFFFFFFFFFFFFFFFFFFFFFFFFFF DUP3 PUSH2 0x48E JUMP JUMPDEST PUSH2 0x4D3 DUP7 DUP4 PUSH2 0x48E JUMP JUMPDEST SWAP6 POP DUP1 NOT DUP5 AND SWAP4 POP DUP1 DUP7 AND DUP5 OR SWAP3 POP POP POP SWAP4 SWAP3 POP POP POP JUMP JUMPDEST PUSH0 DUP2 SWAP1 POP SWAP2 SWAP1 POP JUMP JUMPDEST PUSH0 PUSH2 0x50E PUSH2 0x509 PUSH2 0x504 DUP5 PUSH2 0x176 JUMP JUMPDEST PUSH2 0x4EB JUMP JUMPDEST PUSH2 0x176 JUMP JUMPDEST SWAP1 POP SWAP2 SWAP1 POP JUMP JUMPDEST PUSH0 DUP2 SWAP1 POP SWAP2 SWAP1 POP JUMP JUMPDEST PUSH2 0x527 DUP4 PUSH2 0x4F4 JUMP JUMPDEST PUSH2 0x53B PUSH2 0x533 DUP3 PUSH2 0x515 JUMP JUMPDEST DUP5 DUP5 SLOAD PUSH2 0x49A JUMP JUMPDEST DUP3 SSTORE POP POP POP POP JUMP JUMPDEST PUSH0 SWAP1 JUMP JUMPDEST PUSH2 0x54F PUSH2 0x543 JUMP JUMPDEST PUSH2 0x55A DUP2 DUP5 DUP5 PUSH2 0x51E JUMP JUMPDEST POP POP POP JUMP JUMPDEST JUMPDEST DUP2 DUP2 LT ISZERO PUSH2 0x57D JUMPI PUSH2 0x572 PUSH0 DUP3 PUSH2 0x547 JUMP JUMPDEST PUSH1 0x1 DUP2 ADD SWAP1 POP PUSH2 0x560 JUMP JUMPDEST POP POP JUMP JUMPDEST PUSH1 0x1F DUP3 GT ISZERO PUSH2 0x5C2 JUMPI PUSH2 0x593 DUP2 PUSH2 0x46D JUMP JUMPDEST PUSH2 0x59C DUP5 PUSH2 0x47F JUMP JUMPDEST DUP2 ADD PUSH1 0x20 DUP6 LT ISZERO PUSH2 0x5AB JUMPI DUP2 SWAP1 POP JUMPDEST PUSH2 0x5BF PUSH2 0x5B7 DUP6 PUSH2 0x47F JUMP JUMPDEST DUP4 ADD DUP3 PUSH2 0x55F JUMP JUMPDEST POP POP JUMPDEST POP POP POP JUMP JUMPDEST PUSH0 DUP3 DUP3 SHR SWAP1 POP SWAP3 SWAP2 POP POP JUMP JUMPDEST PUSH0 PUSH2 0x5E2 PUSH0 NOT DUP5 PUSH1 0x8 MUL PUSH2 0x5C7 JUMP JUMPDEST NOT DUP1 DUP4 AND SWAP2 POP POP SWAP3 SWAP2 POP POP JUMP JUMPDEST PUSH0 PUSH2 0x5FA DUP4 DUP4 PUSH2 0x5D3 JUMP JUMPDEST SWAP2 POP DUP3 PUSH1 0x2 MUL DUP3 OR SWAP1 POP SWAP3 SWAP2 POP POP JUMP JUMPDEST PUSH2 0x613 DUP3 PUSH2 0x33B JUMP JUMPDEST PUSH8 0xFFFFFFFFFFFFFFFF DUP2 GT ISZERO PUSH2 0x62C JUMPI PUSH2 0x62B PUSH2 0x1D0 JUMP JUMPDEST JUMPDEST PUSH2 0x636 DUP3 SLOAD PUSH2 0x43D JUMP JUMPDEST PUSH2 0x641 DUP3 DUP3 DUP6 PUSH2 0x581 JUMP JUMPDEST PUSH0 PUSH1 0x20 SWAP1 POP PUSH1 0x1F DUP4 GT PUSH1 0x1 DUP2 EQ PUSH2 0x672 JUMPI PUSH0 DUP5 ISZERO PUSH2 0x660 JUMPI DUP3 DUP8 ADD MLOAD SWAP1 POP JUMPDEST PUSH2 0x66A DUP6 DUP3 PUSH2 0x5EF JUMP JUMPDEST DUP7 SSTORE POP PUSH2 0x6D1 JUMP JUMPDEST PUSH1 0x1F NOT DUP5 AND PUSH2 0x680 DUP7 PUSH2 0x46D JUMP JUMPDEST PUSH0 JUMPDEST DUP3 DUP2 LT ISZERO PUSH2 0x6A7 JUMPI DUP5 DUP10 ADD MLOAD DUP3 SSTORE PUSH1 0x1 DUP3 ADD SWAP2 POP PUSH1 0x20 DUP6 ADD SWAP5 POP PUSH1 0x20 DUP2 ADD SWAP1 POP PUSH2 0x682 JUMP JUMPDEST DUP7 DUP4 LT ISZERO PUSH2 0x6C4 JUMPI DUP5 DUP10 ADD MLOAD PUSH2 0x6C0 PUSH1 0x1F DUP10 AND DUP3 PUSH2 0x5D3 JUMP JUMPDEST DUP4 SSTORE POP JUMPDEST PUSH1 0x1 PUSH1 0x2 DUP9 MUL ADD DUP9 SSTORE POP POP POP JUMPDEST POP POP POP POP POP POP JUMP INVALID LOG2 PUSH5 0x6970667358 0x22 SLT KECCAK256 0xB9 0xCC AND 0xD7 0xC7 0xD JUMPDEST 0xD5 0xCD 0x2F MLOAD 0xD8 0xBE 0xFB PUSH8 0x5A6A45D78DC7E366 PUSH28 0x59C4CB91B419A0C764736F6C634300081A0033000000000000000000 "
				},
				"gasEstimates": {
					"creation": {
						"codeDepositCost": "361400",
						"executionCost": "infinite",
						"totalCost": "infinite"
					},
					"external": {
						"getPersonAge()": "2410",
						"getPersonName()": "infinite",
						"setPersonAge(uint256)": "22559",
						"setPersonName(string)": "infinite"
					}
				},
				"methodIdentifiers": {
					"getPersonAge()": "2a58ed80",
					"getPersonName()": "b55003fa",
					"setPersonAge(uint256)": "cb4685a6",
					"setPersonName(string)": "4e863271"
				}
			},
			"storageLayout": {
				"storage": [
					{
						"astId": 4,
						"contract": "contracts/personContract.sol:Person",
						"label": "personName",
						"offset": 0,
						"slot": "0",
						"type": "t_string_storage"
					},
					{
						"astId": 7,
						"contract": "contracts/personContract.sol:Person",
						"label": "personAge",
						"offset": 0,
						"slot": "1",
						"type": "t_uint256"
					}
				],
				"types": {
					"t_string_storage": {
						"encoding": "bytes",
						"label": "string",
						"numberOfBytes": "32"
					},
					"t_uint256": {
						"encoding": "inplace",
						"label": "uint256",
						"numberOfBytes": "32"
					}
				}
			},
			"userdoc": {
				"kind": "user",
				"methods": {},
				"version": 1
			}
		}
	}
}